{
  "contractName": "TomakNFT",
  "abi": [
    {
      "inputs": [
        {
          "internalType": "string",
          "name": "_name",
          "type": "string"
        },
        {
          "internalType": "string",
          "name": "_symbol",
          "type": "string"
        }
      ],
      "stateMutability": "nonpayable",
      "type": "constructor"
    },
    {
      "inputs": [],
      "name": "ERC721EnumerableForbiddenBatchMint",
      "type": "error"
    },
    {
      "inputs": [
        {
          "internalType": "address",
          "name": "sender",
          "type": "address"
        },
        {
          "internalType": "uint256",
          "name": "tokenId",
          "type": "uint256"
        },
        {
          "internalType": "address",
          "name": "owner",
          "type": "address"
        }
      ],
      "name": "ERC721IncorrectOwner",
      "type": "error"
    },
    {
      "inputs": [
        {
          "internalType": "address",
          "name": "operator",
          "type": "address"
        },
        {
          "internalType": "uint256",
          "name": "tokenId",
          "type": "uint256"
        }
      ],
      "name": "ERC721InsufficientApproval",
      "type": "error"
    },
    {
      "inputs": [
        {
          "internalType": "address",
          "name": "approver",
          "type": "address"
        }
      ],
      "name": "ERC721InvalidApprover",
      "type": "error"
    },
    {
      "inputs": [
        {
          "internalType": "address",
          "name": "operator",
          "type": "address"
        }
      ],
      "name": "ERC721InvalidOperator",
      "type": "error"
    },
    {
      "inputs": [
        {
          "internalType": "address",
          "name": "owner",
          "type": "address"
        }
      ],
      "name": "ERC721InvalidOwner",
      "type": "error"
    },
    {
      "inputs": [
        {
          "internalType": "address",
          "name": "receiver",
          "type": "address"
        }
      ],
      "name": "ERC721InvalidReceiver",
      "type": "error"
    },
    {
      "inputs": [
        {
          "internalType": "address",
          "name": "sender",
          "type": "address"
        }
      ],
      "name": "ERC721InvalidSender",
      "type": "error"
    },
    {
      "inputs": [
        {
          "internalType": "uint256",
          "name": "tokenId",
          "type": "uint256"
        }
      ],
      "name": "ERC721NonexistentToken",
      "type": "error"
    },
    {
      "inputs": [
        {
          "internalType": "address",
          "name": "owner",
          "type": "address"
        },
        {
          "internalType": "uint256",
          "name": "index",
          "type": "uint256"
        }
      ],
      "name": "ERC721OutOfBoundsIndex",
      "type": "error"
    },
    {
      "inputs": [
        {
          "internalType": "address",
          "name": "owner",
          "type": "address"
        }
      ],
      "name": "OwnableInvalidOwner",
      "type": "error"
    },
    {
      "inputs": [
        {
          "internalType": "address",
          "name": "account",
          "type": "address"
        }
      ],
      "name": "OwnableUnauthorizedAccount",
      "type": "error"
    },
    {
      "anonymous": false,
      "inputs": [
        {
          "indexed": true,
          "internalType": "address",
          "name": "owner",
          "type": "address"
        },
        {
          "indexed": true,
          "internalType": "address",
          "name": "approved",
          "type": "address"
        },
        {
          "indexed": true,
          "internalType": "uint256",
          "name": "tokenId",
          "type": "uint256"
        }
      ],
      "name": "Approval",
      "type": "event"
    },
    {
      "anonymous": false,
      "inputs": [
        {
          "indexed": true,
          "internalType": "address",
          "name": "owner",
          "type": "address"
        },
        {
          "indexed": true,
          "internalType": "address",
          "name": "operator",
          "type": "address"
        },
        {
          "indexed": false,
          "internalType": "bool",
          "name": "approved",
          "type": "bool"
        }
      ],
      "name": "ApprovalForAll",
      "type": "event"
    },
    {
      "anonymous": false,
      "inputs": [
        {
          "indexed": true,
          "internalType": "address",
          "name": "previousOwner",
          "type": "address"
        },
        {
          "indexed": true,
          "internalType": "address",
          "name": "newOwner",
          "type": "address"
        }
      ],
      "name": "OwnershipTransferred",
      "type": "event"
    },
    {
      "anonymous": false,
      "inputs": [
        {
          "indexed": true,
          "internalType": "address",
          "name": "from",
          "type": "address"
        },
        {
          "indexed": true,
          "internalType": "address",
          "name": "to",
          "type": "address"
        },
        {
          "indexed": true,
          "internalType": "uint256",
          "name": "tokenId",
          "type": "uint256"
        }
      ],
      "name": "Transfer",
      "type": "event"
    },
    {
      "inputs": [
        {
          "internalType": "address",
          "name": "to",
          "type": "address"
        },
        {
          "internalType": "uint256",
          "name": "tokenId",
          "type": "uint256"
        }
      ],
      "name": "approve",
      "outputs": [],
      "stateMutability": "nonpayable",
      "type": "function"
    },
    {
      "inputs": [
        {
          "internalType": "address",
          "name": "owner",
          "type": "address"
        }
      ],
      "name": "balanceOf",
      "outputs": [
        {
          "internalType": "uint256",
          "name": "",
          "type": "uint256"
        }
      ],
      "stateMutability": "view",
      "type": "function"
    },
    {
      "inputs": [
        {
          "internalType": "uint256",
          "name": "",
          "type": "uint256"
        }
      ],
      "name": "baseURIs",
      "outputs": [
        {
          "internalType": "string",
          "name": "",
          "type": "string"
        }
      ],
      "stateMutability": "view",
      "type": "function"
    },
    {
      "inputs": [
        {
          "internalType": "uint256",
          "name": "tokenId",
          "type": "uint256"
        }
      ],
      "name": "getApproved",
      "outputs": [
        {
          "internalType": "address",
          "name": "",
          "type": "address"
        }
      ],
      "stateMutability": "view",
      "type": "function"
    },
    {
      "inputs": [
        {
          "internalType": "address",
          "name": "owner",
          "type": "address"
        },
        {
          "internalType": "address",
          "name": "operator",
          "type": "address"
        }
      ],
      "name": "isApprovedForAll",
      "outputs": [
        {
          "internalType": "bool",
          "name": "",
          "type": "bool"
        }
      ],
      "stateMutability": "view",
      "type": "function"
    },
    {
      "inputs": [
        {
          "internalType": "uint256",
          "name": "",
          "type": "uint256"
        }
      ],
      "name": "itemTypeMintCount",
      "outputs": [
        {
          "internalType": "uint256",
          "name": "",
          "type": "uint256"
        }
      ],
      "stateMutability": "view",
      "type": "function"
    },
    {
      "inputs": [],
      "name": "name",
      "outputs": [
        {
          "internalType": "string",
          "name": "",
          "type": "string"
        }
      ],
      "stateMutability": "view",
      "type": "function"
    },
    {
      "inputs": [],
      "name": "owner",
      "outputs": [
        {
          "internalType": "address",
          "name": "",
          "type": "address"
        }
      ],
      "stateMutability": "view",
      "type": "function"
    },
    {
      "inputs": [
        {
          "internalType": "uint256",
          "name": "tokenId",
          "type": "uint256"
        }
      ],
      "name": "ownerOf",
      "outputs": [
        {
          "internalType": "address",
          "name": "",
          "type": "address"
        }
      ],
      "stateMutability": "view",
      "type": "function"
    },
    {
      "inputs": [],
      "name": "renounceOwnership",
      "outputs": [],
      "stateMutability": "nonpayable",
      "type": "function"
    },
    {
      "inputs": [
        {
          "internalType": "address",
          "name": "from",
          "type": "address"
        },
        {
          "internalType": "address",
          "name": "to",
          "type": "address"
        },
        {
          "internalType": "uint256",
          "name": "tokenId",
          "type": "uint256"
        }
      ],
      "name": "safeTransferFrom",
      "outputs": [],
      "stateMutability": "nonpayable",
      "type": "function"
    },
    {
      "inputs": [
        {
          "internalType": "address",
          "name": "from",
          "type": "address"
        },
        {
          "internalType": "address",
          "name": "to",
          "type": "address"
        },
        {
          "internalType": "uint256",
          "name": "tokenId",
          "type": "uint256"
        },
        {
          "internalType": "bytes",
          "name": "data",
          "type": "bytes"
        }
      ],
      "name": "safeTransferFrom",
      "outputs": [],
      "stateMutability": "nonpayable",
      "type": "function"
    },
    {
      "inputs": [
        {
          "internalType": "address",
          "name": "operator",
          "type": "address"
        },
        {
          "internalType": "bool",
          "name": "approved",
          "type": "bool"
        }
      ],
      "name": "setApprovalForAll",
      "outputs": [],
      "stateMutability": "nonpayable",
      "type": "function"
    },
    {
      "inputs": [
        {
          "internalType": "bytes4",
          "name": "interfaceId",
          "type": "bytes4"
        }
      ],
      "name": "supportsInterface",
      "outputs": [
        {
          "internalType": "bool",
          "name": "",
          "type": "bool"
        }
      ],
      "stateMutability": "view",
      "type": "function"
    },
    {
      "inputs": [],
      "name": "symbol",
      "outputs": [
        {
          "internalType": "string",
          "name": "",
          "type": "string"
        }
      ],
      "stateMutability": "view",
      "type": "function"
    },
    {
      "inputs": [
        {
          "internalType": "uint256",
          "name": "index",
          "type": "uint256"
        }
      ],
      "name": "tokenByIndex",
      "outputs": [
        {
          "internalType": "uint256",
          "name": "",
          "type": "uint256"
        }
      ],
      "stateMutability": "view",
      "type": "function"
    },
    {
      "inputs": [
        {
          "internalType": "address",
          "name": "owner",
          "type": "address"
        },
        {
          "internalType": "uint256",
          "name": "index",
          "type": "uint256"
        }
      ],
      "name": "tokenOfOwnerByIndex",
      "outputs": [
        {
          "internalType": "uint256",
          "name": "",
          "type": "uint256"
        }
      ],
      "stateMutability": "view",
      "type": "function"
    },
    {
      "inputs": [],
      "name": "totalSupply",
      "outputs": [
        {
          "internalType": "uint256",
          "name": "",
          "type": "uint256"
        }
      ],
      "stateMutability": "view",
      "type": "function"
    },
    {
      "inputs": [
        {
          "internalType": "address",
          "name": "from",
          "type": "address"
        },
        {
          "internalType": "address",
          "name": "to",
          "type": "address"
        },
        {
          "internalType": "uint256",
          "name": "tokenId",
          "type": "uint256"
        }
      ],
      "name": "transferFrom",
      "outputs": [],
      "stateMutability": "nonpayable",
      "type": "function"
    },
    {
      "inputs": [
        {
          "internalType": "address",
          "name": "newOwner",
          "type": "address"
        }
      ],
      "name": "transferOwnership",
      "outputs": [],
      "stateMutability": "nonpayable",
      "type": "function"
    },
    {
      "inputs": [
        {
          "internalType": "uint256",
          "name": "itemType",
          "type": "uint256"
        },
        {
          "internalType": "string",
          "name": "customURI",
          "type": "string"
        }
      ],
      "name": "minting",
      "outputs": [],
      "stateMutability": "nonpayable",
      "type": "function"
    },
    {
      "inputs": [
        {
          "internalType": "uint256",
          "name": "itemType",
          "type": "uint256"
        }
      ],
      "name": "setBaseURI",
      "outputs": [],
      "stateMutability": "nonpayable",
      "type": "function"
    },
    {
      "inputs": [
        {
          "internalType": "uint256",
          "name": "tokenId",
          "type": "uint256"
        }
      ],
      "name": "purchase",
      "outputs": [],
      "stateMutability": "payable",
      "type": "function"
    },
    {
      "inputs": [
        {
          "internalType": "uint256",
          "name": "tokenId",
          "type": "uint256"
        }
      ],
      "name": "tokenURI",
      "outputs": [
        {
          "internalType": "string",
          "name": "",
          "type": "string"
        }
      ],
      "stateMutability": "view",
      "type": "function"
    },
    {
      "inputs": [
        {
          "internalType": "uint256",
          "name": "tokenId",
          "type": "uint256"
        }
      ],
      "name": "decodeTokenId",
      "outputs": [
        {
          "internalType": "uint256",
          "name": "itemType",
          "type": "uint256"
        },
        {
          "internalType": "uint256",
          "name": "index",
          "type": "uint256"
        }
      ],
      "stateMutability": "pure",
      "type": "function"
    },
    {
      "inputs": [
        {
          "internalType": "uint256",
          "name": "itemType",
          "type": "uint256"
        }
      ],
      "name": "getMintedCountByItemType",
      "outputs": [
        {
          "internalType": "uint256",
          "name": "",
          "type": "uint256"
        }
      ],
      "stateMutability": "view",
      "type": "function"
    },
    {
      "inputs": [
        {
          "internalType": "address",
          "name": "owner",
          "type": "address"
        }
      ],
      "name": "getOwnedTokenIds",
      "outputs": [
        {
          "internalType": "uint256[]",
          "name": "",
          "type": "uint256[]"
        }
      ],
      "stateMutability": "view",
      "type": "function"
    },
    {
      "inputs": [],
      "name": "getAllTokenInfos",
      "outputs": [
        {
          "internalType": "uint256[]",
          "name": "tokenIds",
          "type": "uint256[]"
        },
        {
          "internalType": "string[]",
          "name": "uris",
          "type": "string[]"
        }
      ],
      "stateMutability": "view",
      "type": "function"
    }
  ],
  "bytecode": "0x608060405234801562000010575f80fd5b506040516200425538038062004255833981810160405281019062000036919062000333565b338282815f9081620000499190620005ed565b5080600190816200005b9190620005ed565b5050505f73ffffffffffffffffffffffffffffffffffffffff168173ffffffffffffffffffffffffffffffffffffffff1603620000d1575f6040517f1e4fbdf7000000000000000000000000000000000000000000000000000000008152600401620000c8919062000714565b60405180910390fd5b620000e281620000eb60201b60201c565b5050506200072f565b5f600a5f9054906101000a900473ffffffffffffffffffffffffffffffffffffffff16905081600a5f6101000a81548173ffffffffffffffffffffffffffffffffffffffff021916908373ffffffffffffffffffffffffffffffffffffffff1602179055508173ffffffffffffffffffffffffffffffffffffffff168173ffffffffffffffffffffffffffffffffffffffff167f8be0079c531659141344cd1fd0a4f28419497f9722a3daafe3b4186f6b6457e060405160405180910390a35050565b5f604051905090565b5f80fd5b5f80fd5b5f80fd5b5f80fd5b5f601f19601f8301169050919050565b7f4e487b71000000000000000000000000000000000000000000000000000000005f52604160045260245ffd5b6200020f82620001c7565b810181811067ffffffffffffffff82111715620002315762000230620001d7565b5b80604052505050565b5f62000245620001ae565b905062000253828262000204565b919050565b5f67ffffffffffffffff821115620002755762000274620001d7565b5b6200028082620001c7565b9050602081019050919050565b5f5b83811015620002ac5780820151818401526020810190506200028f565b5f8484015250505050565b5f620002cd620002c78462000258565b6200023a565b905082815260208101848484011115620002ec57620002eb620001c3565b5b620002f98482856200028d565b509392505050565b5f82601f830112620003185762000317620001bf565b5b81516200032a848260208601620002b7565b91505092915050565b5f80604083850312156200034c576200034b620001b7565b5b5f83015167ffffffffffffffff8111156200036c576200036b620001bb565b5b6200037a8582860162000301565b925050602083015167ffffffffffffffff8111156200039e576200039d620001bb565b5b620003ac8582860162000301565b9150509250929050565b5f81519050919050565b7f4e487b71000000000000000000000000000000000000000000000000000000005f52602260045260245ffd5b5f60028204905060018216806200040557607f821691505b6020821081036200041b576200041a620003c0565b5b50919050565b5f819050815f5260205f209050919050565b5f6020601f8301049050919050565b5f82821b905092915050565b5f600883026200047f7fffffffffffffffffffffffffffffffffffffffffffffffffffffffffffffffff8262000442565b6200048b868362000442565b95508019841693508086168417925050509392505050565b5f819050919050565b5f819050919050565b5f620004d5620004cf620004c984620004a3565b620004ac565b620004a3565b9050919050565b5f819050919050565b620004f083620004b5565b62000508620004ff82620004dc565b8484546200044e565b825550505050565b5f90565b6200051e62000510565b6200052b818484620004e5565b505050565b5b818110156200055257620005465f8262000514565b60018101905062000531565b5050565b601f821115620005a1576200056b8162000421565b620005768462000433565b8101602085101562000586578190505b6200059e620005958562000433565b83018262000530565b50505b505050565b5f82821c905092915050565b5f620005c35f1984600802620005a6565b1980831691505092915050565b5f620005dd8383620005b2565b9150826002028217905092915050565b620005f882620003b6565b67ffffffffffffffff811115620006145762000613620001d7565b5b620006208254620003ed565b6200062d82828562000556565b5f60209050601f83116001811462000663575f84156200064e578287015190505b6200065a8582620005d0565b865550620006c9565b601f198416620006738662000421565b5f5b828110156200069c5784890151825560018201915060208501945060208101905062000675565b86831015620006bc5784890151620006b8601f891682620005b2565b8355505b6001600288020188555050505b505050505050565b5f73ffffffffffffffffffffffffffffffffffffffff82169050919050565b5f620006fc82620006d1565b9050919050565b6200070e81620006f0565b82525050565b5f602082019050620007295f83018462000703565b92915050565b613b18806200073d5f395ff3fe6080604052600436106101b6575f3560e01c80637efd9112116100eb578063afa524d511610089578063e2c4c4b211610063578063e2c4c4b214610664578063e985e9c51461068c578063efef39a1146106c8578063f2fde38b146106e4576101b6565b8063afa524d5146105c4578063b88d4fde14610600578063c87b56dd14610628576101b6565b80638da5cb5b116100c55780638da5cb5b1461050c578063915642061461053657806395d89b4114610572578063a22cb4651461059c576101b6565b80637efd91121461047c5780638a75191e146104b95780638d19717a146104e1576101b6565b80632f745c59116101585780634fac7e41116101325780634fac7e41146103b25780636352211e146103ee57806370a082311461042a578063715018a614610466576101b6565b80632f745c591461031257806342842e0e1461034e5780634f6ccce714610376576101b6565b8063095ea7b311610194578063095ea7b31461025c57806318160ddd14610284578063236d1b87146102ae57806323b872dd146102ea576101b6565b806301ffc9a7146101ba57806306fdde03146101f6578063081812fc14610220575b5f80fd5b3480156101c5575f80fd5b506101e060048036038101906101db9190612a06565b61070c565b6040516101ed9190612a4b565b60405180910390f35b348015610201575f80fd5b5061020a610785565b6040516102179190612aee565b60405180910390f35b34801561022b575f80fd5b5061024660048036038101906102419190612b41565b610814565b6040516102539190612bab565b60405180910390f35b348015610267575f80fd5b50610282600480360381019061027d9190612bee565b61082f565b005b34801561028f575f80fd5b50610298610845565b6040516102a59190612c3b565b60405180910390f35b3480156102b9575f80fd5b506102d460048036038101906102cf9190612b41565b610851565b6040516102e19190612c3b565b60405180910390f35b3480156102f5575f80fd5b50610310600480360381019061030b9190612c54565b61086b565b005b34801561031d575f80fd5b5061033860048036038101906103339190612bee565b61096a565b6040516103459190612c3b565b60405180910390f35b348015610359575f80fd5b50610374600480360381019061036f9190612c54565b610a0e565b005b348015610381575f80fd5b5061039c60048036038101906103979190612b41565b610a2d565b6040516103a99190612c3b565b60405180910390f35b3480156103bd575f80fd5b506103d860048036038101906103d39190612ca4565b610a9f565b6040516103e59190612d86565b60405180910390f35b3480156103f9575f80fd5b50610414600480360381019061040f9190612b41565b610b4a565b6040516104219190612bab565b60405180910390f35b348015610435575f80fd5b50610450600480360381019061044b9190612ca4565b610b5b565b60405161045d9190612c3b565b60405180910390f35b348015610471575f80fd5b5061047a610c11565b005b348015610487575f80fd5b506104a2600480360381019061049d9190612b41565b610c24565b6040516104b0929190612da6565b60405180910390f35b3480156104c4575f80fd5b506104df60048036038101906104da9190612b41565b610c47565b005b3480156104ec575f80fd5b506104f5610ce0565b604051610503929190612ed0565b60405180910390f35b348015610517575f80fd5b50610520610e00565b60405161052d9190612bab565b60405180910390f35b348015610541575f80fd5b5061055c60048036038101906105579190612b41565b610e28565b6040516105699190612aee565b60405180910390f35b34801561057d575f80fd5b50610586610ec3565b6040516105939190612aee565b60405180910390f35b3480156105a7575f80fd5b506105c260048036038101906105bd9190612f2f565b610f53565b005b3480156105cf575f80fd5b506105ea60048036038101906105e59190612b41565b610f69565b6040516105f79190612c3b565b60405180910390f35b34801561060b575f80fd5b5061062660048036038101906106219190613099565b610f7e565b005b348015610633575f80fd5b5061064e60048036038101906106499190612b41565b610fa3565b60405161065b9190612aee565b60405180910390f35b34801561066f575f80fd5b5061068a600480360381019061068591906131b7565b6111d5565b005b348015610697575f80fd5b506106b260048036038101906106ad9190613211565b611246565b6040516106bf9190612a4b565b60405180910390f35b6106e260048036038101906106dd9190612b41565b6112d4565b005b3480156106ef575f80fd5b5061070a60048036038101906107059190612ca4565b6114e6565b005b5f7f780e9d63000000000000000000000000000000000000000000000000000000007bffffffffffffffffffffffffffffffffffffffffffffffffffffffff1916827bffffffffffffffffffffffffffffffffffffffffffffffffffffffff1916148061077e575061077d8261156a565b5b9050919050565b60605f80546107939061327c565b80601f01602080910402602001604051908101604052809291908181526020018280546107bf9061327c565b801561080a5780601f106107e15761010080835404028352916020019161080a565b820191905f5260205f20905b8154815290600101906020018083116107ed57829003601f168201915b5050505050905090565b5f61081e8261164b565b50610828826116d1565b9050919050565b610841828261083c61170a565b611711565b5050565b5f600880549050905090565b5f600c5f8381526020019081526020015f20549050919050565b5f73ffffffffffffffffffffffffffffffffffffffff168273ffffffffffffffffffffffffffffffffffffffff16036108db575f6040517f64a0ae920000000000000000000000000000000000000000000000000000000081526004016108d29190612bab565b60405180910390fd5b5f6108ee83836108e961170a565b611723565b90508373ffffffffffffffffffffffffffffffffffffffff168173ffffffffffffffffffffffffffffffffffffffff1614610964578382826040517f64283d7b00000000000000000000000000000000000000000000000000000000815260040161095b939291906132ac565b60405180910390fd5b50505050565b5f61097483610b5b565b82106109b95782826040517fa57d13dc0000000000000000000000000000000000000000000000000000000081526004016109b09291906132e1565b60405180910390fd5b60065f8473ffffffffffffffffffffffffffffffffffffffff1673ffffffffffffffffffffffffffffffffffffffff1681526020019081526020015f205f8381526020019081526020015f2054905092915050565b610a2883838360405180602001604052805f815250610f7e565b505050565b5f610a36610845565b8210610a7b575f826040517fa57d13dc000000000000000000000000000000000000000000000000000000008152600401610a729291906132e1565b60405180910390fd5b60088281548110610a8f57610a8e613308565b5b905f5260205f2001549050919050565b60605f610aab83610b5b565b90505f8167ffffffffffffffff811115610ac857610ac7612f75565b5b604051908082528060200260200182016040528015610af65781602001602082028036833780820191505090505b5090505f5b82811015610b3f57610b0d858261096a565b828281518110610b2057610b1f613308565b5b6020026020010181815250508080610b3790613362565b915050610afb565b508092505050919050565b5f610b548261164b565b9050919050565b5f8073ffffffffffffffffffffffffffffffffffffffff168273ffffffffffffffffffffffffffffffffffffffff1603610bcc575f6040517f89c62b64000000000000000000000000000000000000000000000000000000008152600401610bc39190612bab565b60405180910390fd5b60035f8373ffffffffffffffffffffffffffffffffffffffff1673ffffffffffffffffffffffffffffffffffffffff1681526020019081526020015f20549050919050565b610c1961183d565b610c225f6118c4565b565b5f80608083901c91506fffffffffffffffffffffffffffffffff83169050915091565b610c4f61183d565b5f604051806080016040528060438152602001613aa06043913990505f610c7583611987565b604051602001610c859190613409565b60405160208183030381529060405290505f8282604051602001610caa92919061342e565b604051602081830303815290604052905080600d5f8681526020019081526020015f209081610cd991906135ee565b5050505050565b6060805f610cec610845565b90508067ffffffffffffffff811115610d0857610d07612f75565b5b604051908082528060200260200182016040528015610d365781602001602082028036833780820191505090505b5092508067ffffffffffffffff811115610d5357610d52612f75565b5b604051908082528060200260200182016040528015610d8657816020015b6060815260200190600190039081610d715790505b5091505f5b81811015610dfa575f610d9d82610a2d565b905080858381518110610db357610db2613308565b5b602002602001018181525050610dc881610fa3565b848381518110610ddb57610dda613308565b5b6020026020010181905250508080610df290613362565b915050610d8b565b50509091565b5f600a5f9054906101000a900473ffffffffffffffffffffffffffffffffffffffff16905090565b600d602052805f5260405f205f915090508054610e449061327c565b80601f0160208091040260200160405190810160405280929190818152602001828054610e709061327c565b8015610ebb5780601f10610e9257610100808354040283529160200191610ebb565b820191905f5260205f20905b815481529060010190602001808311610e9e57829003601f168201915b505050505081565b606060018054610ed29061327c565b80601f0160208091040260200160405190810160405280929190818152602001828054610efe9061327c565b8015610f495780601f10610f2057610100808354040283529160200191610f49565b820191905f5260205f20905b815481529060010190602001808311610f2c57829003601f168201915b5050505050905090565b610f65610f5e61170a565b8383611a51565b5050565b600c602052805f5260405f205f915090505481565b610f8984848461086b565b610f9d610f9461170a565b85858585611bba565b50505050565b60605f73ffffffffffffffffffffffffffffffffffffffff16610fc583611d66565b73ffffffffffffffffffffffffffffffffffffffff160361101b576040517f08c379a00000000000000000000000000000000000000000000000000000000081526004016110129061372d565b60405180910390fd5b5f600b5f8481526020019081526020015f2080546110389061327c565b905011156110df57600b5f8381526020019081526020015f20805461105c9061327c565b80601f01602080910402602001604051908101604052809291908181526020018280546110889061327c565b80156110d35780601f106110aa576101008083540402835291602001916110d3565b820191905f5260205f20905b8154815290600101906020018083116110b657829003601f168201915b505050505090506111d0565b5f6110e983610c24565b5090505f600d5f8381526020019081526020015f2080546111099061327c565b80601f01602080910402602001604051908101604052809291908181526020018280546111359061327c565b80156111805780601f1061115757610100808354040283529160200191611180565b820191905f5260205f20905b81548152906001019060200180831161116357829003601f168201915b505050505090505f8151116111ca576040517f08c379a00000000000000000000000000000000000000000000000000000000081526004016111c1906137bb565b60405180910390fd5b80925050505b919050565b6111dd61183d565b5f600c5f8481526020019081526020015f205f81546111fb90613362565b91905081905590505f81608085901b1790506112173382611d9f565b5f835111156112405782600b5f8381526020019081526020015f20908161123e91906135ee565b505b50505050565b5f60055f8473ffffffffffffffffffffffffffffffffffffffff1673ffffffffffffffffffffffffffffffffffffffff1681526020019081526020015f205f8373ffffffffffffffffffffffffffffffffffffffff1673ffffffffffffffffffffffffffffffffffffffff1681526020019081526020015f205f9054906101000a900460ff16905092915050565b5f73ffffffffffffffffffffffffffffffffffffffff166112f482611d66565b73ffffffffffffffffffffffffffffffffffffffff160361134a576040517f08c379a00000000000000000000000000000000000000000000000000000000081526004016113419061372d565b60405180910390fd5b5f61135482610b4a565b90503373ffffffffffffffffffffffffffffffffffffffff168173ffffffffffffffffffffffffffffffffffffffff16036113c4576040517f08c379a00000000000000000000000000000000000000000000000000000000081526004016113bb90613823565b60405180910390fd5b3073ffffffffffffffffffffffffffffffffffffffff166113e483610814565b73ffffffffffffffffffffffffffffffffffffffff16148061140c575061140b8130611246565b5b61144b576040517f08c379a0000000000000000000000000000000000000000000000000000000008152600401611442906138b1565b60405180910390fd5b655af3107a40003414611493576040517f08c379a000000000000000000000000000000000000000000000000000000000815260040161148a90613919565b60405180910390fd5b8073ffffffffffffffffffffffffffffffffffffffff166108fc3490811502906040515f60405180830381858888f193505050501580156114d6573d5f803e3d5ffd5b506114e2813384611dbc565b5050565b6114ee61183d565b5f73ffffffffffffffffffffffffffffffffffffffff168173ffffffffffffffffffffffffffffffffffffffff160361155e575f6040517f1e4fbdf70000000000000000000000000000000000000000000000000000000081526004016115559190612bab565b60405180910390fd5b611567816118c4565b50565b5f7f80ac58cd000000000000000000000000000000000000000000000000000000007bffffffffffffffffffffffffffffffffffffffffffffffffffffffff1916827bffffffffffffffffffffffffffffffffffffffffffffffffffffffff1916148061163457507f5b5e139f000000000000000000000000000000000000000000000000000000007bffffffffffffffffffffffffffffffffffffffffffffffffffffffff1916827bffffffffffffffffffffffffffffffffffffffffffffffffffffffff1916145b80611644575061164382611f24565b5b9050919050565b5f8061165683611d66565b90505f73ffffffffffffffffffffffffffffffffffffffff168173ffffffffffffffffffffffffffffffffffffffff16036116c857826040517f7e2732890000000000000000000000000000000000000000000000000000000081526004016116bf9190612c3b565b60405180910390fd5b80915050919050565b5f60045f8381526020019081526020015f205f9054906101000a900473ffffffffffffffffffffffffffffffffffffffff169050919050565b5f33905090565b61171e8383836001611f8d565b505050565b5f8061173085858561214c565b90505f73ffffffffffffffffffffffffffffffffffffffff168173ffffffffffffffffffffffffffffffffffffffff16036117735761176e84612357565b6117b2565b8473ffffffffffffffffffffffffffffffffffffffff168173ffffffffffffffffffffffffffffffffffffffff16146117b1576117b0818561239b565b5b5b5f73ffffffffffffffffffffffffffffffffffffffff168573ffffffffffffffffffffffffffffffffffffffff16036117f3576117ee84612472565b611832565b8473ffffffffffffffffffffffffffffffffffffffff168173ffffffffffffffffffffffffffffffffffffffff1614611831576118308585612532565b5b5b809150509392505050565b61184561170a565b73ffffffffffffffffffffffffffffffffffffffff16611863610e00565b73ffffffffffffffffffffffffffffffffffffffff16146118c25761188661170a565b6040517f118cdaa70000000000000000000000000000000000000000000000000000000081526004016118b99190612bab565b60405180910390fd5b565b5f600a5f9054906101000a900473ffffffffffffffffffffffffffffffffffffffff16905081600a5f6101000a81548173ffffffffffffffffffffffffffffffffffffffff021916908373ffffffffffffffffffffffffffffffffffffffff1602179055508173ffffffffffffffffffffffffffffffffffffffff168173ffffffffffffffffffffffffffffffffffffffff167f8be0079c531659141344cd1fd0a4f28419497f9722a3daafe3b4186f6b6457e060405160405180910390a35050565b60605f6001611995846125b6565b0190505f8167ffffffffffffffff8111156119b3576119b2612f75565b5b6040519080825280601f01601f1916602001820160405280156119e55781602001600182028036833780820191505090505b5090505f82602001820190505b600115611a46578080600190039150507f3031323334353637383961626364656600000000000000000000000000000000600a86061a8153600a8581611a3b57611a3a613937565b5b0494505f85036119f2575b819350505050919050565b5f73ffffffffffffffffffffffffffffffffffffffff168273ffffffffffffffffffffffffffffffffffffffff1603611ac157816040517f5b08ba18000000000000000000000000000000000000000000000000000000008152600401611ab89190612bab565b60405180910390fd5b8060055f8573ffffffffffffffffffffffffffffffffffffffff1673ffffffffffffffffffffffffffffffffffffffff1681526020019081526020015f205f8473ffffffffffffffffffffffffffffffffffffffff1673ffffffffffffffffffffffffffffffffffffffff1681526020019081526020015f205f6101000a81548160ff0219169083151502179055508173ffffffffffffffffffffffffffffffffffffffff168373ffffffffffffffffffffffffffffffffffffffff167f17307eab39ab6107e8899845ad3d59bd9653f200f220920489ca2b5937696c3183604051611bad9190612a4b565b60405180910390a3505050565b5f8373ffffffffffffffffffffffffffffffffffffffff163b1115611d5f578273ffffffffffffffffffffffffffffffffffffffff1663150b7a02868685856040518563ffffffff1660e01b8152600401611c1894939291906139b6565b6020604051808303815f875af1925050508015611c5357506040513d601f19601f82011682018060405250810190611c509190613a14565b60015b611cd4573d805f8114611c81576040519150601f19603f3d011682016040523d82523d5f602084013e611c86565b606091505b505f815103611ccc57836040517f64a0ae92000000000000000000000000000000000000000000000000000000008152600401611cc39190612bab565b60405180910390fd5b805181602001fd5b63150b7a0260e01b7bffffffffffffffffffffffffffffffffffffffffffffffffffffffff1916817bffffffffffffffffffffffffffffffffffffffffffffffffffffffff191614611d5d57836040517f64a0ae92000000000000000000000000000000000000000000000000000000008152600401611d549190612bab565b60405180910390fd5b505b5050505050565b5f60025f8381526020019081526020015f205f9054906101000a900473ffffffffffffffffffffffffffffffffffffffff169050919050565b611db8828260405180602001604052805f815250612707565b5050565b5f73ffffffffffffffffffffffffffffffffffffffff168273ffffffffffffffffffffffffffffffffffffffff1603611e2c575f6040517f64a0ae92000000000000000000000000000000000000000000000000000000008152600401611e239190612bab565b60405180910390fd5b5f611e3883835f611723565b90505f73ffffffffffffffffffffffffffffffffffffffff168173ffffffffffffffffffffffffffffffffffffffff1603611eaa57816040517f7e273289000000000000000000000000000000000000000000000000000000008152600401611ea19190612c3b565b60405180910390fd5b8373ffffffffffffffffffffffffffffffffffffffff168173ffffffffffffffffffffffffffffffffffffffff1614611f1e578382826040517f64283d7b000000000000000000000000000000000000000000000000000000008152600401611f15939291906132ac565b60405180910390fd5b50505050565b5f7f01ffc9a7000000000000000000000000000000000000000000000000000000007bffffffffffffffffffffffffffffffffffffffffffffffffffffffff1916827bffffffffffffffffffffffffffffffffffffffffffffffffffffffff1916149050919050565b8080611fc557505f73ffffffffffffffffffffffffffffffffffffffff168273ffffffffffffffffffffffffffffffffffffffff1614155b156120f7575f611fd48461164b565b90505f73ffffffffffffffffffffffffffffffffffffffff168373ffffffffffffffffffffffffffffffffffffffff161415801561203e57508273ffffffffffffffffffffffffffffffffffffffff168173ffffffffffffffffffffffffffffffffffffffff1614155b8015612051575061204f8184611246565b155b1561209357826040517fa9fbf51f00000000000000000000000000000000000000000000000000000000815260040161208a9190612bab565b60405180910390fd5b81156120f557838573ffffffffffffffffffffffffffffffffffffffff168273ffffffffffffffffffffffffffffffffffffffff167f8c5be1e5ebec7d5bd14f71427d1e84f3dd0314c0f7b2291e5b200ac8c7c3b92560405160405180910390a45b505b8360045f8581526020019081526020015f205f6101000a81548173ffffffffffffffffffffffffffffffffffffffff021916908373ffffffffffffffffffffffffffffffffffffffff16021790555050505050565b5f8061215784611d66565b90505f73ffffffffffffffffffffffffffffffffffffffff168373ffffffffffffffffffffffffffffffffffffffff16146121985761219781848661272a565b5b5f73ffffffffffffffffffffffffffffffffffffffff168173ffffffffffffffffffffffffffffffffffffffff1614612223576121d75f855f80611f8d565b600160035f8373ffffffffffffffffffffffffffffffffffffffff1673ffffffffffffffffffffffffffffffffffffffff1681526020019081526020015f205f82825403925050819055505b5f73ffffffffffffffffffffffffffffffffffffffff168573ffffffffffffffffffffffffffffffffffffffff16146122a257600160035f8773ffffffffffffffffffffffffffffffffffffffff1673ffffffffffffffffffffffffffffffffffffffff1681526020019081526020015f205f82825401925050819055505b8460025f8681526020019081526020015f205f6101000a81548173ffffffffffffffffffffffffffffffffffffffff021916908373ffffffffffffffffffffffffffffffffffffffff160217905550838573ffffffffffffffffffffffffffffffffffffffff168273ffffffffffffffffffffffffffffffffffffffff167fddf252ad1be2c89b69c2b068fc378daa952ba7f163c4a11628f55a4df523b3ef60405160405180910390a4809150509392505050565b60088054905060095f8381526020019081526020015f2081905550600881908060018154018082558091505060019003905f5260205f20015f909190919091505550565b5f6123a583610b5b565b90505f60075f8481526020019081526020015f205490505f60065f8673ffffffffffffffffffffffffffffffffffffffff1673ffffffffffffffffffffffffffffffffffffffff1681526020019081526020015f209050828214612444575f815f8581526020019081526020015f2054905080825f8581526020019081526020015f20819055508260075f8381526020019081526020015f2081905550505b60075f8581526020019081526020015f205f9055805f8481526020019081526020015f205f90555050505050565b5f60016008805490506124859190613a3f565b90505f60095f8481526020019081526020015f205490505f600883815481106124b1576124b0613308565b5b905f5260205f200154905080600883815481106124d1576124d0613308565b5b905f5260205f2001819055508160095f8381526020019081526020015f208190555060095f8581526020019081526020015f205f9055600880548061251957612518613a72565b5b600190038181905f5260205f20015f9055905550505050565b5f600161253e84610b5b565b6125489190613a3f565b90508160065f8573ffffffffffffffffffffffffffffffffffffffff1673ffffffffffffffffffffffffffffffffffffffff1681526020019081526020015f205f8381526020019081526020015f20819055508060075f8481526020019081526020015f2081905550505050565b5f805f90507a184f03e93ff9f4daa797ed6e38ed64bf6a1f0100000000000000008310612612577a184f03e93ff9f4daa797ed6e38ed64bf6a1f010000000000000000838161260857612607613937565b5b0492506040810190505b6d04ee2d6d415b85acef8100000000831061264f576d04ee2d6d415b85acef8100000000838161264557612644613937565b5b0492506020810190505b662386f26fc10000831061267e57662386f26fc10000838161267457612673613937565b5b0492506010810190505b6305f5e10083106126a7576305f5e100838161269d5761269c613937565b5b0492506008810190505b61271083106126cc5761271083816126c2576126c1613937565b5b0492506004810190505b606483106126ef57606483816126e5576126e4613937565b5b0492506002810190505b600a83106126fe576001810190505b80915050919050565b61271183836127ed565b61272561271c61170a565b5f858585611bba565b505050565b6127358383836128e0565b6127e8575f73ffffffffffffffffffffffffffffffffffffffff168373ffffffffffffffffffffffffffffffffffffffff16036127a957806040517f7e2732890000000000000000000000000000000000000000000000000000000081526004016127a09190612c3b565b60405180910390fd5b81816040517f177e802f0000000000000000000000000000000000000000000000000000000081526004016127df9291906132e1565b60405180910390fd5b505050565b5f73ffffffffffffffffffffffffffffffffffffffff168273ffffffffffffffffffffffffffffffffffffffff160361285d575f6040517f64a0ae920000000000000000000000000000000000000000000000000000000081526004016128549190612bab565b60405180910390fd5b5f61286983835f611723565b90505f73ffffffffffffffffffffffffffffffffffffffff168173ffffffffffffffffffffffffffffffffffffffff16146128db575f6040517f73c6ac6e0000000000000000000000000000000000000000000000000000000081526004016128d29190612bab565b60405180910390fd5b505050565b5f8073ffffffffffffffffffffffffffffffffffffffff168373ffffffffffffffffffffffffffffffffffffffff161415801561299757508273ffffffffffffffffffffffffffffffffffffffff168473ffffffffffffffffffffffffffffffffffffffff16148061295857506129578484611246565b5b8061299657508273ffffffffffffffffffffffffffffffffffffffff1661297e836116d1565b73ffffffffffffffffffffffffffffffffffffffff16145b5b90509392505050565b5f604051905090565b5f80fd5b5f80fd5b5f7fffffffff0000000000000000000000000000000000000000000000000000000082169050919050565b6129e5816129b1565b81146129ef575f80fd5b50565b5f81359050612a00816129dc565b92915050565b5f60208284031215612a1b57612a1a6129a9565b5b5f612a28848285016129f2565b91505092915050565b5f8115159050919050565b612a4581612a31565b82525050565b5f602082019050612a5e5f830184612a3c565b92915050565b5f81519050919050565b5f82825260208201905092915050565b5f5b83811015612a9b578082015181840152602081019050612a80565b5f8484015250505050565b5f601f19601f8301169050919050565b5f612ac082612a64565b612aca8185612a6e565b9350612ada818560208601612a7e565b612ae381612aa6565b840191505092915050565b5f6020820190508181035f830152612b068184612ab6565b905092915050565b5f819050919050565b612b2081612b0e565b8114612b2a575f80fd5b50565b5f81359050612b3b81612b17565b92915050565b5f60208284031215612b5657612b556129a9565b5b5f612b6384828501612b2d565b91505092915050565b5f73ffffffffffffffffffffffffffffffffffffffff82169050919050565b5f612b9582612b6c565b9050919050565b612ba581612b8b565b82525050565b5f602082019050612bbe5f830184612b9c565b92915050565b612bcd81612b8b565b8114612bd7575f80fd5b50565b5f81359050612be881612bc4565b92915050565b5f8060408385031215612c0457612c036129a9565b5b5f612c1185828601612bda565b9250506020612c2285828601612b2d565b9150509250929050565b612c3581612b0e565b82525050565b5f602082019050612c4e5f830184612c2c565b92915050565b5f805f60608486031215612c6b57612c6a6129a9565b5b5f612c7886828701612bda565b9350506020612c8986828701612bda565b9250506040612c9a86828701612b2d565b9150509250925092565b5f60208284031215612cb957612cb86129a9565b5b5f612cc684828501612bda565b91505092915050565b5f81519050919050565b5f82825260208201905092915050565b5f819050602082019050919050565b612d0181612b0e565b82525050565b5f612d128383612cf8565b60208301905092915050565b5f602082019050919050565b5f612d3482612ccf565b612d3e8185612cd9565b9350612d4983612ce9565b805f5b83811015612d79578151612d608882612d07565b9750612d6b83612d1e565b925050600181019050612d4c565b5085935050505092915050565b5f6020820190508181035f830152612d9e8184612d2a565b905092915050565b5f604082019050612db95f830185612c2c565b612dc66020830184612c2c565b9392505050565b5f81519050919050565b5f82825260208201905092915050565b5f819050602082019050919050565b5f82825260208201905092915050565b5f612e1082612a64565b612e1a8185612df6565b9350612e2a818560208601612a7e565b612e3381612aa6565b840191505092915050565b5f612e498383612e06565b905092915050565b5f602082019050919050565b5f612e6782612dcd565b612e718185612dd7565b935083602082028501612e8385612de7565b805f5b85811015612ebe5784840389528151612e9f8582612e3e565b9450612eaa83612e51565b925060208a01995050600181019050612e86565b50829750879550505050505092915050565b5f6040820190508181035f830152612ee88185612d2a565b90508181036020830152612efc8184612e5d565b90509392505050565b612f0e81612a31565b8114612f18575f80fd5b50565b5f81359050612f2981612f05565b92915050565b5f8060408385031215612f4557612f446129a9565b5b5f612f5285828601612bda565b9250506020612f6385828601612f1b565b9150509250929050565b5f80fd5b5f80fd5b7f4e487b71000000000000000000000000000000000000000000000000000000005f52604160045260245ffd5b612fab82612aa6565b810181811067ffffffffffffffff82111715612fca57612fc9612f75565b5b80604052505050565b5f612fdc6129a0565b9050612fe88282612fa2565b919050565b5f67ffffffffffffffff82111561300757613006612f75565b5b61301082612aa6565b9050602081019050919050565b828183375f83830152505050565b5f61303d61303884612fed565b612fd3565b90508281526020810184848401111561305957613058612f71565b5b61306484828561301d565b509392505050565b5f82601f8301126130805761307f612f6d565b5b813561309084826020860161302b565b91505092915050565b5f805f80608085870312156130b1576130b06129a9565b5b5f6130be87828801612bda565b94505060206130cf87828801612bda565b93505060406130e087828801612b2d565b925050606085013567ffffffffffffffff811115613101576131006129ad565b5b61310d8782880161306c565b91505092959194509250565b5f67ffffffffffffffff82111561313357613132612f75565b5b61313c82612aa6565b9050602081019050919050565b5f61315b61315684613119565b612fd3565b90508281526020810184848401111561317757613176612f71565b5b61318284828561301d565b509392505050565b5f82601f83011261319e5761319d612f6d565b5b81356131ae848260208601613149565b91505092915050565b5f80604083850312156131cd576131cc6129a9565b5b5f6131da85828601612b2d565b925050602083013567ffffffffffffffff8111156131fb576131fa6129ad565b5b6132078582860161318a565b9150509250929050565b5f8060408385031215613227576132266129a9565b5b5f61323485828601612bda565b925050602061324585828601612bda565b9150509250929050565b7f4e487b71000000000000000000000000000000000000000000000000000000005f52602260045260245ffd5b5f600282049050600182168061329357607f821691505b6020821081036132a6576132a561324f565b5b50919050565b5f6060820190506132bf5f830186612b9c565b6132cc6020830185612c2c565b6132d96040830184612b9c565b949350505050565b5f6040820190506132f45f830185612b9c565b6133016020830184612c2c565b9392505050565b7f4e487b71000000000000000000000000000000000000000000000000000000005f52603260045260245ffd5b7f4e487b71000000000000000000000000000000000000000000000000000000005f52601160045260245ffd5b5f61336c82612b0e565b91507fffffffffffffffffffffffffffffffffffffffffffffffffffffffffffffffff820361339e5761339d613335565b5b600182019050919050565b5f81905092915050565b5f6133bd82612a64565b6133c781856133a9565b93506133d7818560208601612a7e565b80840191505092915050565b7f2e6a736f6e000000000000000000000000000000000000000000000000000000815250565b5f61341482846133b3565b915061341f826133e3565b60058201915081905092915050565b5f61343982856133b3565b915061344582846133b3565b91508190509392505050565b5f819050815f5260205f209050919050565b5f6020601f8301049050919050565b5f82821b905092915050565b5f600883026134ad7fffffffffffffffffffffffffffffffffffffffffffffffffffffffffffffffff82613472565b6134b78683613472565b95508019841693508086168417925050509392505050565b5f819050919050565b5f6134f26134ed6134e884612b0e565b6134cf565b612b0e565b9050919050565b5f819050919050565b61350b836134d8565b61351f613517826134f9565b84845461347e565b825550505050565b5f90565b613533613527565b61353e818484613502565b505050565b5b81811015613561576135565f8261352b565b600181019050613544565b5050565b601f8211156135a65761357781613451565b61358084613463565b8101602085101561358f578190505b6135a361359b85613463565b830182613543565b50505b505050565b5f82821c905092915050565b5f6135c65f19846008026135ab565b1980831691505092915050565b5f6135de83836135b7565b9150826002028217905092915050565b6135f782612a64565b67ffffffffffffffff8111156136105761360f612f75565b5b61361a825461327c565b613625828285613565565b5f60209050601f831160018114613656575f8415613644578287015190505b61364e85826135d3565b8655506136b5565b601f19841661366486613451565b5f5b8281101561368b57848901518255600182019150602085019450602081019050613666565b868310156136a857848901516136a4601f8916826135b7565b8355505b6001600288020188555050505b505050505050565b7f546f6d616b4e46543a2055524920717565727920666f72206e6f6e65786973745f8201527f656e7420746f6b656e0000000000000000000000000000000000000000000000602082015250565b5f613717602983612a6e565b9150613722826136bd565b604082019050919050565b5f6020820190508181035f8301526137448161370b565b9050919050565b7f546f6d616b4e46543a2062617365555249206e6f742073657420666f722069745f8201527f656d547970650000000000000000000000000000000000000000000000000000602082015250565b5f6137a5602683612a6e565b91506137b08261374b565b604082019050919050565b5f6020820190508181035f8301526137d281613799565b9050919050565b7f596f7520416c7265616479204f776e207468697320746f6b656e0000000000005f82015250565b5f61380d601a83612a6e565b9150613818826137d9565b602082019050919050565b5f6020820190508181035f83015261383a81613801565b9050919050565b7f436f6e7472616374206e6f7420617070726f76656420666f72207472616e73665f8201527f6572000000000000000000000000000000000000000000000000000000000000602082015250565b5f61389b602283612a6e565b91506138a682613841565b604082019050919050565b5f6020820190508181035f8301526138c88161388f565b9050919050565b7f507269636520697320302e3030303120657468657200000000000000000000005f82015250565b5f613903601583612a6e565b915061390e826138cf565b602082019050919050565b5f6020820190508181035f830152613930816138f7565b9050919050565b7f4e487b71000000000000000000000000000000000000000000000000000000005f52601260045260245ffd5b5f81519050919050565b5f82825260208201905092915050565b5f61398882613964565b613992818561396e565b93506139a2818560208601612a7e565b6139ab81612aa6565b840191505092915050565b5f6080820190506139c95f830187612b9c565b6139d66020830186612b9c565b6139e36040830185612c2c565b81810360608301526139f5818461397e565b905095945050505050565b5f81519050613a0e816129dc565b92915050565b5f60208284031215613a2957613a286129a9565b5b5f613a3684828501613a00565b91505092915050565b5f613a4982612b0e565b9150613a5483612b0e565b9250828203905081811115613a6c57613a6b613335565b5b92915050565b7f4e487b71000000000000000000000000000000000000000000000000000000005f52603160045260245ffdfe697066733a2f2f6261667962656962717a6435687a35676b6c716a65376279786962776b796c777975626d72326c7977656261667a63716c716f6c736268766d74712fa264697066735822122004f96767f3a895372b250c00feb66b60ffaf48f18cdd0abf81726a6074583dd264736f6c63430008140033",
  "immutableReferences": {},
  "source": "// SPDX-License-Identifier: MIT\npragma solidity ^0.8.20;\n\nimport \"@openzeppelin/contracts/token/ERC721/extensions/ERC721Enumerable.sol\";\nimport \"@openzeppelin/contracts/access/Ownable.sol\";\nimport \"@openzeppelin/contracts/utils/Strings.sol\";\n\ncontract TomakNFT is ERC721Enumerable, Ownable{\n    using Strings for uint256;\n    constructor(string memory _name, string memory _symbol)\n        ERC721(_name, _symbol)\n        Ownable(msg.sender){}\n\n    //tokenid ->  url\n    mapping(uint256 => string) private _customTokenURIs;\n\n    //  -> \n    mapping(uint256 => uint256) public itemTypeMintCount;\n\n    //  -> base url\n    mapping(uint256 => string) public baseURIs;\n\n    function minting(uint256 itemType, string memory customURI) public onlyOwner {\n        uint256 index = ++itemTypeMintCount[itemType];\n        uint256 tokenId = (itemType << 128) | index;\n\n        _safeMint(msg.sender, tokenId);\n\n        if (bytes(customURI).length > 0) {\n            _customTokenURIs[tokenId] = customURI;\n        }\n    }\n\n    //baseURI  (itemType)\n    function setBaseURI(uint256 itemType) external onlyOwner {\n        string memory baseURI = \"ipfs://bafybeibqzd5hz5gklqje7byxibwkylwyubmr2lywebafzcqlqolsbhvmtq/\";\n        string memory fileName = string.concat(itemType.toString(), \".json\");\n        string memory uri = string.concat(baseURI, fileName);\n        baseURIs[itemType] = uri;\n    }\n\n    function purchase(uint256 tokenId) public payable {\n        require(_ownerOf(tokenId) != address(0), \"TomakNFT: URI query for nonexistent token\");\n        address currentOwner = ownerOf(tokenId);\n        require(currentOwner != msg.sender, \"You Already Own this token\");\n        require(\n            getApproved(tokenId) == address(this) || isApprovedForAll(currentOwner, address(this)),\n            \"Contract not approved for transfer\"\n        );\n        require(msg.value == 0.0001 ether, \"Price is 0.0001 ether\");\n\n        //  \n        payable(currentOwner).transfer(msg.value);\n\n        //     \n        // from, to, tokenId\n        _transfer(currentOwner, msg.sender, tokenId);\n    }\n\n    function tokenURI(uint256 tokenId) public view override returns (string memory) {\n        require(_ownerOf(tokenId) != address(0), \"TomakNFT: URI query for nonexistent token\");\n\n        if (bytes(_customTokenURIs[tokenId]).length > 0) {\n            return _customTokenURIs[tokenId];\n        }\n\n        (uint256 itemType, ) = decodeTokenId(tokenId); // index \n        string memory uri = baseURIs[itemType];\n        require(bytes(uri).length > 0, \"TomakNFT: baseURI not set for itemType\");\n\n        return uri; //  .json   \n    }\n\n    function decodeTokenId(uint256 tokenId) public pure returns (uint256 itemType, uint256 index) {\n        itemType = tokenId >> 128;\n        index = tokenId & ((1 << 128) - 1);\n    }\n\n    function getMintedCountByItemType(uint256 itemType) external view returns (uint256) {\n        return itemTypeMintCount[itemType];\n    }\n\n    //   nft\n    function getOwnedTokenIds(address owner) external view returns (uint256[] memory) {\n        uint256 count = balanceOf(owner);\n        uint256[] memory tokenIds = new uint256[](count);\n        for (uint256 i = 0; i < count; i++) {\n            tokenIds[i] = tokenOfOwnerByIndex(owner, i);\n        }\n        return tokenIds;\n    }\n\n    function getAllTokenInfos() external view returns (uint256[] memory tokenIds, string[] memory uris) {\n        uint256 total = totalSupply();\n        tokenIds = new uint256[](total);\n        uris = new string[](total);\n        for (uint256 i = 0; i < total; i++) {\n            uint256 tokenId = tokenByIndex(i);\n            tokenIds[i] = tokenId;\n            uris[i] = tokenURI(tokenId);\n        }\n    }\n}",
  "sourcePath": "/home/tjmaxx/workspace/monthTest/250521_monthTest8/truffle/contracts/tomak.sol",
  "compiler": {
    "name": "solc",
    "version": "0.8.20+commit.a1b79de6.Emscripten.clang"
  },
  "schemaVersion": "3.4.16",
  "updatedAt": "2025-05-22T02:46:55.177Z",
  "devdoc": {
    "errors": {
      "ERC721EnumerableForbiddenBatchMint()": [
        {
          "details": "Batch mint is not allowed."
        }
      ],
      "ERC721IncorrectOwner(address,uint256,address)": [
        {
          "details": "Indicates an error related to the ownership over a particular token. Used in transfers.",
          "params": {
            "owner": "Address of the current owner of a token.",
            "sender": "Address whose tokens are being transferred.",
            "tokenId": "Identifier number of a token."
          }
        }
      ],
      "ERC721InsufficientApproval(address,uint256)": [
        {
          "details": "Indicates a failure with the `operator`s approval. Used in transfers.",
          "params": {
            "operator": "Address that may be allowed to operate on tokens without being their owner.",
            "tokenId": "Identifier number of a token."
          }
        }
      ],
      "ERC721InvalidApprover(address)": [
        {
          "details": "Indicates a failure with the `approver` of a token to be approved. Used in approvals.",
          "params": {
            "approver": "Address initiating an approval operation."
          }
        }
      ],
      "ERC721InvalidOperator(address)": [
        {
          "details": "Indicates a failure with the `operator` to be approved. Used in approvals.",
          "params": {
            "operator": "Address that may be allowed to operate on tokens without being their owner."
          }
        }
      ],
      "ERC721InvalidOwner(address)": [
        {
          "details": "Indicates that an address can't be an owner. For example, `address(0)` is a forbidden owner in ERC-20. Used in balance queries.",
          "params": {
            "owner": "Address of the current owner of a token."
          }
        }
      ],
      "ERC721InvalidReceiver(address)": [
        {
          "details": "Indicates a failure with the token `receiver`. Used in transfers.",
          "params": {
            "receiver": "Address to which tokens are being transferred."
          }
        }
      ],
      "ERC721InvalidSender(address)": [
        {
          "details": "Indicates a failure with the token `sender`. Used in transfers.",
          "params": {
            "sender": "Address whose tokens are being transferred."
          }
        }
      ],
      "ERC721NonexistentToken(uint256)": [
        {
          "details": "Indicates a `tokenId` whose `owner` is the zero address.",
          "params": {
            "tokenId": "Identifier number of a token."
          }
        }
      ],
      "ERC721OutOfBoundsIndex(address,uint256)": [
        {
          "details": "An `owner`'s token query was out of bounds for `index`. NOTE: The owner being `address(0)` indicates a global out of bounds index."
        }
      ],
      "OwnableInvalidOwner(address)": [
        {
          "details": "The owner is not a valid owner account. (eg. `address(0)`)"
        }
      ],
      "OwnableUnauthorizedAccount(address)": [
        {
          "details": "The caller account is not authorized to perform an operation."
        }
      ]
    },
    "events": {
      "Approval(address,address,uint256)": {
        "details": "Emitted when `owner` enables `approved` to manage the `tokenId` token."
      },
      "ApprovalForAll(address,address,bool)": {
        "details": "Emitted when `owner` enables or disables (`approved`) `operator` to manage all of its assets."
      },
      "Transfer(address,address,uint256)": {
        "details": "Emitted when `tokenId` token is transferred from `from` to `to`."
      }
    },
    "kind": "dev",
    "methods": {
      "approve(address,uint256)": {
        "details": "See {IERC721-approve}."
      },
      "balanceOf(address)": {
        "details": "See {IERC721-balanceOf}."
      },
      "getApproved(uint256)": {
        "details": "See {IERC721-getApproved}."
      },
      "isApprovedForAll(address,address)": {
        "details": "See {IERC721-isApprovedForAll}."
      },
      "name()": {
        "details": "See {IERC721Metadata-name}."
      },
      "owner()": {
        "details": "Returns the address of the current owner."
      },
      "ownerOf(uint256)": {
        "details": "See {IERC721-ownerOf}."
      },
      "renounceOwnership()": {
        "details": "Leaves the contract without owner. It will not be possible to call `onlyOwner` functions. Can only be called by the current owner. NOTE: Renouncing ownership will leave the contract without an owner, thereby disabling any functionality that is only available to the owner."
      },
      "safeTransferFrom(address,address,uint256)": {
        "details": "See {IERC721-safeTransferFrom}."
      },
      "safeTransferFrom(address,address,uint256,bytes)": {
        "details": "See {IERC721-safeTransferFrom}."
      },
      "setApprovalForAll(address,bool)": {
        "details": "See {IERC721-setApprovalForAll}."
      },
      "supportsInterface(bytes4)": {
        "details": "See {IERC165-supportsInterface}."
      },
      "symbol()": {
        "details": "See {IERC721Metadata-symbol}."
      },
      "tokenByIndex(uint256)": {
        "details": "See {IERC721Enumerable-tokenByIndex}."
      },
      "tokenOfOwnerByIndex(address,uint256)": {
        "details": "See {IERC721Enumerable-tokenOfOwnerByIndex}."
      },
      "tokenURI(uint256)": {
        "details": "See {IERC721Metadata-tokenURI}."
      },
      "totalSupply()": {
        "details": "See {IERC721Enumerable-totalSupply}."
      },
      "transferFrom(address,address,uint256)": {
        "details": "See {IERC721-transferFrom}."
      },
      "transferOwnership(address)": {
        "details": "Transfers ownership of the contract to a new account (`newOwner`). Can only be called by the current owner."
      }
    },
    "version": 1
  },
  "userdoc": {
    "kind": "user",
    "methods": {},
    "version": 1
  }
}