{
  "contractName": "TomakNFT",
  "abi": [
    {
      "inputs": [
        {
          "internalType": "string",
          "name": "_name",
          "type": "string"
        },
        {
          "internalType": "string",
          "name": "_symbol",
          "type": "string"
        }
      ],
      "stateMutability": "nonpayable",
      "type": "constructor"
    },
    {
      "inputs": [],
      "name": "ERC721EnumerableForbiddenBatchMint",
      "type": "error"
    },
    {
      "inputs": [
        {
          "internalType": "address",
          "name": "sender",
          "type": "address"
        },
        {
          "internalType": "uint256",
          "name": "tokenId",
          "type": "uint256"
        },
        {
          "internalType": "address",
          "name": "owner",
          "type": "address"
        }
      ],
      "name": "ERC721IncorrectOwner",
      "type": "error"
    },
    {
      "inputs": [
        {
          "internalType": "address",
          "name": "operator",
          "type": "address"
        },
        {
          "internalType": "uint256",
          "name": "tokenId",
          "type": "uint256"
        }
      ],
      "name": "ERC721InsufficientApproval",
      "type": "error"
    },
    {
      "inputs": [
        {
          "internalType": "address",
          "name": "approver",
          "type": "address"
        }
      ],
      "name": "ERC721InvalidApprover",
      "type": "error"
    },
    {
      "inputs": [
        {
          "internalType": "address",
          "name": "operator",
          "type": "address"
        }
      ],
      "name": "ERC721InvalidOperator",
      "type": "error"
    },
    {
      "inputs": [
        {
          "internalType": "address",
          "name": "owner",
          "type": "address"
        }
      ],
      "name": "ERC721InvalidOwner",
      "type": "error"
    },
    {
      "inputs": [
        {
          "internalType": "address",
          "name": "receiver",
          "type": "address"
        }
      ],
      "name": "ERC721InvalidReceiver",
      "type": "error"
    },
    {
      "inputs": [
        {
          "internalType": "address",
          "name": "sender",
          "type": "address"
        }
      ],
      "name": "ERC721InvalidSender",
      "type": "error"
    },
    {
      "inputs": [
        {
          "internalType": "uint256",
          "name": "tokenId",
          "type": "uint256"
        }
      ],
      "name": "ERC721NonexistentToken",
      "type": "error"
    },
    {
      "inputs": [
        {
          "internalType": "address",
          "name": "owner",
          "type": "address"
        },
        {
          "internalType": "uint256",
          "name": "index",
          "type": "uint256"
        }
      ],
      "name": "ERC721OutOfBoundsIndex",
      "type": "error"
    },
    {
      "inputs": [
        {
          "internalType": "address",
          "name": "owner",
          "type": "address"
        }
      ],
      "name": "OwnableInvalidOwner",
      "type": "error"
    },
    {
      "inputs": [
        {
          "internalType": "address",
          "name": "account",
          "type": "address"
        }
      ],
      "name": "OwnableUnauthorizedAccount",
      "type": "error"
    },
    {
      "anonymous": false,
      "inputs": [
        {
          "indexed": true,
          "internalType": "address",
          "name": "owner",
          "type": "address"
        },
        {
          "indexed": true,
          "internalType": "address",
          "name": "approved",
          "type": "address"
        },
        {
          "indexed": true,
          "internalType": "uint256",
          "name": "tokenId",
          "type": "uint256"
        }
      ],
      "name": "Approval",
      "type": "event"
    },
    {
      "anonymous": false,
      "inputs": [
        {
          "indexed": true,
          "internalType": "address",
          "name": "owner",
          "type": "address"
        },
        {
          "indexed": true,
          "internalType": "address",
          "name": "operator",
          "type": "address"
        },
        {
          "indexed": false,
          "internalType": "bool",
          "name": "approved",
          "type": "bool"
        }
      ],
      "name": "ApprovalForAll",
      "type": "event"
    },
    {
      "anonymous": false,
      "inputs": [
        {
          "indexed": true,
          "internalType": "address",
          "name": "previousOwner",
          "type": "address"
        },
        {
          "indexed": true,
          "internalType": "address",
          "name": "newOwner",
          "type": "address"
        }
      ],
      "name": "OwnershipTransferred",
      "type": "event"
    },
    {
      "anonymous": false,
      "inputs": [
        {
          "indexed": true,
          "internalType": "address",
          "name": "from",
          "type": "address"
        },
        {
          "indexed": true,
          "internalType": "address",
          "name": "to",
          "type": "address"
        },
        {
          "indexed": true,
          "internalType": "uint256",
          "name": "tokenId",
          "type": "uint256"
        }
      ],
      "name": "Transfer",
      "type": "event"
    },
    {
      "inputs": [
        {
          "internalType": "address",
          "name": "to",
          "type": "address"
        },
        {
          "internalType": "uint256",
          "name": "tokenId",
          "type": "uint256"
        }
      ],
      "name": "approve",
      "outputs": [],
      "stateMutability": "nonpayable",
      "type": "function"
    },
    {
      "inputs": [
        {
          "internalType": "address",
          "name": "owner",
          "type": "address"
        }
      ],
      "name": "balanceOf",
      "outputs": [
        {
          "internalType": "uint256",
          "name": "",
          "type": "uint256"
        }
      ],
      "stateMutability": "view",
      "type": "function"
    },
    {
      "inputs": [
        {
          "internalType": "uint256",
          "name": "",
          "type": "uint256"
        }
      ],
      "name": "baseURIs",
      "outputs": [
        {
          "internalType": "string",
          "name": "",
          "type": "string"
        }
      ],
      "stateMutability": "view",
      "type": "function"
    },
    {
      "inputs": [
        {
          "internalType": "uint256",
          "name": "tokenId",
          "type": "uint256"
        }
      ],
      "name": "getApproved",
      "outputs": [
        {
          "internalType": "address",
          "name": "",
          "type": "address"
        }
      ],
      "stateMutability": "view",
      "type": "function"
    },
    {
      "inputs": [
        {
          "internalType": "address",
          "name": "owner",
          "type": "address"
        },
        {
          "internalType": "address",
          "name": "operator",
          "type": "address"
        }
      ],
      "name": "isApprovedForAll",
      "outputs": [
        {
          "internalType": "bool",
          "name": "",
          "type": "bool"
        }
      ],
      "stateMutability": "view",
      "type": "function"
    },
    {
      "inputs": [
        {
          "internalType": "uint256",
          "name": "",
          "type": "uint256"
        }
      ],
      "name": "itemTypeMintCount",
      "outputs": [
        {
          "internalType": "uint256",
          "name": "",
          "type": "uint256"
        }
      ],
      "stateMutability": "view",
      "type": "function"
    },
    {
      "inputs": [],
      "name": "name",
      "outputs": [
        {
          "internalType": "string",
          "name": "",
          "type": "string"
        }
      ],
      "stateMutability": "view",
      "type": "function"
    },
    {
      "inputs": [],
      "name": "owner",
      "outputs": [
        {
          "internalType": "address",
          "name": "",
          "type": "address"
        }
      ],
      "stateMutability": "view",
      "type": "function"
    },
    {
      "inputs": [
        {
          "internalType": "uint256",
          "name": "tokenId",
          "type": "uint256"
        }
      ],
      "name": "ownerOf",
      "outputs": [
        {
          "internalType": "address",
          "name": "",
          "type": "address"
        }
      ],
      "stateMutability": "view",
      "type": "function"
    },
    {
      "inputs": [],
      "name": "renounceOwnership",
      "outputs": [],
      "stateMutability": "nonpayable",
      "type": "function"
    },
    {
      "inputs": [
        {
          "internalType": "address",
          "name": "from",
          "type": "address"
        },
        {
          "internalType": "address",
          "name": "to",
          "type": "address"
        },
        {
          "internalType": "uint256",
          "name": "tokenId",
          "type": "uint256"
        }
      ],
      "name": "safeTransferFrom",
      "outputs": [],
      "stateMutability": "nonpayable",
      "type": "function"
    },
    {
      "inputs": [
        {
          "internalType": "address",
          "name": "from",
          "type": "address"
        },
        {
          "internalType": "address",
          "name": "to",
          "type": "address"
        },
        {
          "internalType": "uint256",
          "name": "tokenId",
          "type": "uint256"
        },
        {
          "internalType": "bytes",
          "name": "data",
          "type": "bytes"
        }
      ],
      "name": "safeTransferFrom",
      "outputs": [],
      "stateMutability": "nonpayable",
      "type": "function"
    },
    {
      "inputs": [
        {
          "internalType": "address",
          "name": "operator",
          "type": "address"
        },
        {
          "internalType": "bool",
          "name": "approved",
          "type": "bool"
        }
      ],
      "name": "setApprovalForAll",
      "outputs": [],
      "stateMutability": "nonpayable",
      "type": "function"
    },
    {
      "inputs": [
        {
          "internalType": "bytes4",
          "name": "interfaceId",
          "type": "bytes4"
        }
      ],
      "name": "supportsInterface",
      "outputs": [
        {
          "internalType": "bool",
          "name": "",
          "type": "bool"
        }
      ],
      "stateMutability": "view",
      "type": "function"
    },
    {
      "inputs": [],
      "name": "symbol",
      "outputs": [
        {
          "internalType": "string",
          "name": "",
          "type": "string"
        }
      ],
      "stateMutability": "view",
      "type": "function"
    },
    {
      "inputs": [
        {
          "internalType": "uint256",
          "name": "index",
          "type": "uint256"
        }
      ],
      "name": "tokenByIndex",
      "outputs": [
        {
          "internalType": "uint256",
          "name": "",
          "type": "uint256"
        }
      ],
      "stateMutability": "view",
      "type": "function"
    },
    {
      "inputs": [
        {
          "internalType": "address",
          "name": "owner",
          "type": "address"
        },
        {
          "internalType": "uint256",
          "name": "index",
          "type": "uint256"
        }
      ],
      "name": "tokenOfOwnerByIndex",
      "outputs": [
        {
          "internalType": "uint256",
          "name": "",
          "type": "uint256"
        }
      ],
      "stateMutability": "view",
      "type": "function"
    },
    {
      "inputs": [],
      "name": "totalSupply",
      "outputs": [
        {
          "internalType": "uint256",
          "name": "",
          "type": "uint256"
        }
      ],
      "stateMutability": "view",
      "type": "function"
    },
    {
      "inputs": [
        {
          "internalType": "address",
          "name": "from",
          "type": "address"
        },
        {
          "internalType": "address",
          "name": "to",
          "type": "address"
        },
        {
          "internalType": "uint256",
          "name": "tokenId",
          "type": "uint256"
        }
      ],
      "name": "transferFrom",
      "outputs": [],
      "stateMutability": "nonpayable",
      "type": "function"
    },
    {
      "inputs": [
        {
          "internalType": "address",
          "name": "newOwner",
          "type": "address"
        }
      ],
      "name": "transferOwnership",
      "outputs": [],
      "stateMutability": "nonpayable",
      "type": "function"
    },
    {
      "inputs": [
        {
          "internalType": "uint256",
          "name": "itemType",
          "type": "uint256"
        },
        {
          "internalType": "string",
          "name": "customURI",
          "type": "string"
        }
      ],
      "name": "minting",
      "outputs": [],
      "stateMutability": "nonpayable",
      "type": "function"
    },
    {
      "inputs": [
        {
          "internalType": "uint256",
          "name": "itemType",
          "type": "uint256"
        }
      ],
      "name": "setBaseURI",
      "outputs": [],
      "stateMutability": "nonpayable",
      "type": "function"
    },
    {
      "inputs": [
        {
          "internalType": "uint256",
          "name": "tokenId",
          "type": "uint256"
        }
      ],
      "name": "tokenURI",
      "outputs": [
        {
          "internalType": "string",
          "name": "",
          "type": "string"
        }
      ],
      "stateMutability": "view",
      "type": "function"
    },
    {
      "inputs": [
        {
          "internalType": "uint256",
          "name": "tokenId",
          "type": "uint256"
        }
      ],
      "name": "decodeTokenId",
      "outputs": [
        {
          "internalType": "uint256",
          "name": "itemType",
          "type": "uint256"
        },
        {
          "internalType": "uint256",
          "name": "index",
          "type": "uint256"
        }
      ],
      "stateMutability": "pure",
      "type": "function"
    },
    {
      "inputs": [
        {
          "internalType": "uint256",
          "name": "itemType",
          "type": "uint256"
        }
      ],
      "name": "getMintedCountByItemType",
      "outputs": [
        {
          "internalType": "uint256",
          "name": "",
          "type": "uint256"
        }
      ],
      "stateMutability": "view",
      "type": "function"
    }
  ],
  "bytecode": "0x608060405234801562000010575f80fd5b50604051620037af380380620037af833981810160405281019062000036919062000333565b338282815f9081620000499190620005ed565b5080600190816200005b9190620005ed565b5050505f73ffffffffffffffffffffffffffffffffffffffff168173ffffffffffffffffffffffffffffffffffffffff1603620000d1575f6040517f1e4fbdf7000000000000000000000000000000000000000000000000000000008152600401620000c8919062000714565b60405180910390fd5b620000e281620000eb60201b60201c565b5050506200072f565b5f600a5f9054906101000a900473ffffffffffffffffffffffffffffffffffffffff16905081600a5f6101000a81548173ffffffffffffffffffffffffffffffffffffffff021916908373ffffffffffffffffffffffffffffffffffffffff1602179055508173ffffffffffffffffffffffffffffffffffffffff168173ffffffffffffffffffffffffffffffffffffffff167f8be0079c531659141344cd1fd0a4f28419497f9722a3daafe3b4186f6b6457e060405160405180910390a35050565b5f604051905090565b5f80fd5b5f80fd5b5f80fd5b5f80fd5b5f601f19601f8301169050919050565b7f4e487b71000000000000000000000000000000000000000000000000000000005f52604160045260245ffd5b6200020f82620001c7565b810181811067ffffffffffffffff82111715620002315762000230620001d7565b5b80604052505050565b5f62000245620001ae565b905062000253828262000204565b919050565b5f67ffffffffffffffff821115620002755762000274620001d7565b5b6200028082620001c7565b9050602081019050919050565b5f5b83811015620002ac5780820151818401526020810190506200028f565b5f8484015250505050565b5f620002cd620002c78462000258565b6200023a565b905082815260208101848484011115620002ec57620002eb620001c3565b5b620002f98482856200028d565b509392505050565b5f82601f830112620003185762000317620001bf565b5b81516200032a848260208601620002b7565b91505092915050565b5f80604083850312156200034c576200034b620001b7565b5b5f83015167ffffffffffffffff8111156200036c576200036b620001bb565b5b6200037a8582860162000301565b925050602083015167ffffffffffffffff8111156200039e576200039d620001bb565b5b620003ac8582860162000301565b9150509250929050565b5f81519050919050565b7f4e487b71000000000000000000000000000000000000000000000000000000005f52602260045260245ffd5b5f60028204905060018216806200040557607f821691505b6020821081036200041b576200041a620003c0565b5b50919050565b5f819050815f5260205f209050919050565b5f6020601f8301049050919050565b5f82821b905092915050565b5f600883026200047f7fffffffffffffffffffffffffffffffffffffffffffffffffffffffffffffffff8262000442565b6200048b868362000442565b95508019841693508086168417925050509392505050565b5f819050919050565b5f819050919050565b5f620004d5620004cf620004c984620004a3565b620004ac565b620004a3565b9050919050565b5f819050919050565b620004f083620004b5565b62000508620004ff82620004dc565b8484546200044e565b825550505050565b5f90565b6200051e62000510565b6200052b818484620004e5565b505050565b5b818110156200055257620005465f8262000514565b60018101905062000531565b5050565b601f821115620005a1576200056b8162000421565b620005768462000433565b8101602085101562000586578190505b6200059e620005958562000433565b83018262000530565b50505b505050565b5f82821c905092915050565b5f620005c35f1984600802620005a6565b1980831691505092915050565b5f620005dd8383620005b2565b9150826002028217905092915050565b620005f882620003b6565b67ffffffffffffffff811115620006145762000613620001d7565b5b620006208254620003ed565b6200062d82828562000556565b5f60209050601f83116001811462000663575f84156200064e578287015190505b6200065a8582620005d0565b865550620006c9565b601f198416620006738662000421565b5f5b828110156200069c5784890151825560018201915060208501945060208101905062000675565b86831015620006bc5784890151620006b8601f891682620005b2565b8355505b6001600288020188555050505b505050505050565b5f73ffffffffffffffffffffffffffffffffffffffff82169050919050565b5f620006fc82620006d1565b9050919050565b6200070e81620006f0565b82525050565b5f602082019050620007295f83018462000703565b92915050565b613072806200073d5f395ff3fe608060405234801561000f575f80fd5b5060043610610171575f3560e01c8063715018a6116100dc578063a22cb46511610095578063c87b56dd1161006f578063c87b56dd14610480578063e2c4c4b2146104b0578063e985e9c5146104cc578063f2fde38b146104fc57610171565b8063a22cb46514610418578063afa524d514610434578063b88d4fde1461046457610171565b8063715018a6146103555780637efd91121461035f5780638a75191e146103905780638da5cb5b146103ac57806391564206146103ca57806395d89b41146103fa57610171565b806323b872dd1161012e57806323b872dd1461025d5780632f745c591461027957806342842e0e146102a95780634f6ccce7146102c55780636352211e146102f557806370a082311461032557610171565b806301ffc9a71461017557806306fdde03146101a5578063081812fc146101c3578063095ea7b3146101f357806318160ddd1461020f578063236d1b871461022d575b5f80fd5b61018f600480360381019061018a91906122cd565b610518565b60405161019c9190612312565b60405180910390f35b6101ad610591565b6040516101ba91906123b5565b60405180910390f35b6101dd60048036038101906101d89190612408565b610620565b6040516101ea9190612472565b60405180910390f35b61020d600480360381019061020891906124b5565b61063b565b005b610217610651565b6040516102249190612502565b60405180910390f35b61024760048036038101906102429190612408565b61065d565b6040516102549190612502565b60405180910390f35b6102776004803603810190610272919061251b565b610677565b005b610293600480360381019061028e91906124b5565b610776565b6040516102a09190612502565b60405180910390f35b6102c360048036038101906102be919061251b565b61081a565b005b6102df60048036038101906102da9190612408565b610839565b6040516102ec9190612502565b60405180910390f35b61030f600480360381019061030a9190612408565b6108ab565b60405161031c9190612472565b60405180910390f35b61033f600480360381019061033a919061256b565b6108bc565b60405161034c9190612502565b60405180910390f35b61035d610972565b005b61037960048036038101906103749190612408565b610985565b604051610387929190612596565b60405180910390f35b6103aa60048036038101906103a59190612408565b6109a8565b005b6103b4610a41565b6040516103c19190612472565b60405180910390f35b6103e460048036038101906103df9190612408565b610a69565b6040516103f191906123b5565b60405180910390f35b610402610b04565b60405161040f91906123b5565b60405180910390f35b610432600480360381019061042d91906125e7565b610b94565b005b61044e60048036038101906104499190612408565b610baa565b60405161045b9190612502565b60405180910390f35b61047e60048036038101906104799190612751565b610bbf565b005b61049a60048036038101906104959190612408565b610be4565b6040516104a791906123b5565b60405180910390f35b6104ca60048036038101906104c5919061286f565b610e16565b005b6104e660048036038101906104e191906128c9565b610e87565b6040516104f39190612312565b60405180910390f35b6105166004803603810190610511919061256b565b610f15565b005b5f7f780e9d63000000000000000000000000000000000000000000000000000000007bffffffffffffffffffffffffffffffffffffffffffffffffffffffff1916827bffffffffffffffffffffffffffffffffffffffffffffffffffffffff1916148061058a575061058982610f99565b5b9050919050565b60605f805461059f90612934565b80601f01602080910402602001604051908101604052809291908181526020018280546105cb90612934565b80156106165780601f106105ed57610100808354040283529160200191610616565b820191905f5260205f20905b8154815290600101906020018083116105f957829003601f168201915b5050505050905090565b5f61062a8261107a565b5061063482611100565b9050919050565b61064d8282610648611139565b611140565b5050565b5f600880549050905090565b5f600c5f8381526020019081526020015f20549050919050565b5f73ffffffffffffffffffffffffffffffffffffffff168273ffffffffffffffffffffffffffffffffffffffff16036106e7575f6040517f64a0ae920000000000000000000000000000000000000000000000000000000081526004016106de9190612472565b60405180910390fd5b5f6106fa83836106f5611139565b611152565b90508373ffffffffffffffffffffffffffffffffffffffff168173ffffffffffffffffffffffffffffffffffffffff1614610770578382826040517f64283d7b00000000000000000000000000000000000000000000000000000000815260040161076793929190612964565b60405180910390fd5b50505050565b5f610780836108bc565b82106107c55782826040517fa57d13dc0000000000000000000000000000000000000000000000000000000081526004016107bc929190612999565b60405180910390fd5b60065f8473ffffffffffffffffffffffffffffffffffffffff1673ffffffffffffffffffffffffffffffffffffffff1681526020019081526020015f205f8381526020019081526020015f2054905092915050565b61083483838360405180602001604052805f815250610bbf565b505050565b5f610842610651565b8210610887575f826040517fa57d13dc00000000000000000000000000000000000000000000000000000000815260040161087e929190612999565b60405180910390fd5b6008828154811061089b5761089a6129c0565b5b905f5260205f2001549050919050565b5f6108b58261107a565b9050919050565b5f8073ffffffffffffffffffffffffffffffffffffffff168273ffffffffffffffffffffffffffffffffffffffff160361092d575f6040517f89c62b640000000000000000000000000000000000000000000000000000000081526004016109249190612472565b60405180910390fd5b60035f8373ffffffffffffffffffffffffffffffffffffffff1673ffffffffffffffffffffffffffffffffffffffff1681526020019081526020015f20549050919050565b61097a61126c565b6109835f6112f3565b565b5f80608083901c91506fffffffffffffffffffffffffffffffff83169050915091565b6109b061126c565b5f604051806080016040528060438152602001612ffa6043913990505f6109d6836113b6565b6040516020016109e69190612a4d565b60405160208183030381529060405290505f8282604051602001610a0b929190612a72565b604051602081830303815290604052905080600d5f8681526020019081526020015f209081610a3a9190612c32565b5050505050565b5f600a5f9054906101000a900473ffffffffffffffffffffffffffffffffffffffff16905090565b600d602052805f5260405f205f915090508054610a8590612934565b80601f0160208091040260200160405190810160405280929190818152602001828054610ab190612934565b8015610afc5780601f10610ad357610100808354040283529160200191610afc565b820191905f5260205f20905b815481529060010190602001808311610adf57829003601f168201915b505050505081565b606060018054610b1390612934565b80601f0160208091040260200160405190810160405280929190818152602001828054610b3f90612934565b8015610b8a5780601f10610b6157610100808354040283529160200191610b8a565b820191905f5260205f20905b815481529060010190602001808311610b6d57829003601f168201915b5050505050905090565b610ba6610b9f611139565b8383611480565b5050565b600c602052805f5260405f205f915090505481565b610bca848484610677565b610bde610bd5611139565b858585856115e9565b50505050565b60605f73ffffffffffffffffffffffffffffffffffffffff16610c0683611795565b73ffffffffffffffffffffffffffffffffffffffff1603610c5c576040517f08c379a0000000000000000000000000000000000000000000000000000000008152600401610c5390612d71565b60405180910390fd5b5f600b5f8481526020019081526020015f208054610c7990612934565b90501115610d2057600b5f8381526020019081526020015f208054610c9d90612934565b80601f0160208091040260200160405190810160405280929190818152602001828054610cc990612934565b8015610d145780601f10610ceb57610100808354040283529160200191610d14565b820191905f5260205f20905b815481529060010190602001808311610cf757829003601f168201915b50505050509050610e11565b5f610d2a83610985565b5090505f600d5f8381526020019081526020015f208054610d4a90612934565b80601f0160208091040260200160405190810160405280929190818152602001828054610d7690612934565b8015610dc15780601f10610d9857610100808354040283529160200191610dc1565b820191905f5260205f20905b815481529060010190602001808311610da457829003601f168201915b505050505090505f815111610e0b576040517f08c379a0000000000000000000000000000000000000000000000000000000008152600401610e0290612dff565b60405180910390fd5b80925050505b919050565b610e1e61126c565b5f600c5f8481526020019081526020015f205f8154610e3c90612e4a565b91905081905590505f81608085901b179050610e5833826117ce565b5f83511115610e815782600b5f8381526020019081526020015f209081610e7f9190612c32565b505b50505050565b5f60055f8473ffffffffffffffffffffffffffffffffffffffff1673ffffffffffffffffffffffffffffffffffffffff1681526020019081526020015f205f8373ffffffffffffffffffffffffffffffffffffffff1673ffffffffffffffffffffffffffffffffffffffff1681526020019081526020015f205f9054906101000a900460ff16905092915050565b610f1d61126c565b5f73ffffffffffffffffffffffffffffffffffffffff168173ffffffffffffffffffffffffffffffffffffffff1603610f8d575f6040517f1e4fbdf7000000000000000000000000000000000000000000000000000000008152600401610f849190612472565b60405180910390fd5b610f96816112f3565b50565b5f7f80ac58cd000000000000000000000000000000000000000000000000000000007bffffffffffffffffffffffffffffffffffffffffffffffffffffffff1916827bffffffffffffffffffffffffffffffffffffffffffffffffffffffff1916148061106357507f5b5e139f000000000000000000000000000000000000000000000000000000007bffffffffffffffffffffffffffffffffffffffffffffffffffffffff1916827bffffffffffffffffffffffffffffffffffffffffffffffffffffffff1916145b806110735750611072826117eb565b5b9050919050565b5f8061108583611795565b90505f73ffffffffffffffffffffffffffffffffffffffff168173ffffffffffffffffffffffffffffffffffffffff16036110f757826040517f7e2732890000000000000000000000000000000000000000000000000000000081526004016110ee9190612502565b60405180910390fd5b80915050919050565b5f60045f8381526020019081526020015f205f9054906101000a900473ffffffffffffffffffffffffffffffffffffffff169050919050565b5f33905090565b61114d8383836001611854565b505050565b5f8061115f858585611a13565b90505f73ffffffffffffffffffffffffffffffffffffffff168173ffffffffffffffffffffffffffffffffffffffff16036111a25761119d84611c1e565b6111e1565b8473ffffffffffffffffffffffffffffffffffffffff168173ffffffffffffffffffffffffffffffffffffffff16146111e0576111df8185611c62565b5b5b5f73ffffffffffffffffffffffffffffffffffffffff168573ffffffffffffffffffffffffffffffffffffffff16036112225761121d84611d39565b611261565b8473ffffffffffffffffffffffffffffffffffffffff168173ffffffffffffffffffffffffffffffffffffffff16146112605761125f8585611df9565b5b5b809150509392505050565b611274611139565b73ffffffffffffffffffffffffffffffffffffffff16611292610a41565b73ffffffffffffffffffffffffffffffffffffffff16146112f1576112b5611139565b6040517f118cdaa70000000000000000000000000000000000000000000000000000000081526004016112e89190612472565b60405180910390fd5b565b5f600a5f9054906101000a900473ffffffffffffffffffffffffffffffffffffffff16905081600a5f6101000a81548173ffffffffffffffffffffffffffffffffffffffff021916908373ffffffffffffffffffffffffffffffffffffffff1602179055508173ffffffffffffffffffffffffffffffffffffffff168173ffffffffffffffffffffffffffffffffffffffff167f8be0079c531659141344cd1fd0a4f28419497f9722a3daafe3b4186f6b6457e060405160405180910390a35050565b60605f60016113c484611e7d565b0190505f8167ffffffffffffffff8111156113e2576113e161262d565b5b6040519080825280601f01601f1916602001820160405280156114145781602001600182028036833780820191505090505b5090505f82602001820190505b600115611475578080600190039150507f3031323334353637383961626364656600000000000000000000000000000000600a86061a8153600a858161146a57611469612e91565b5b0494505f8503611421575b819350505050919050565b5f73ffffffffffffffffffffffffffffffffffffffff168273ffffffffffffffffffffffffffffffffffffffff16036114f057816040517f5b08ba180000000000000000000000000000000000000000000000000000000081526004016114e79190612472565b60405180910390fd5b8060055f8573ffffffffffffffffffffffffffffffffffffffff1673ffffffffffffffffffffffffffffffffffffffff1681526020019081526020015f205f8473ffffffffffffffffffffffffffffffffffffffff1673ffffffffffffffffffffffffffffffffffffffff1681526020019081526020015f205f6101000a81548160ff0219169083151502179055508173ffffffffffffffffffffffffffffffffffffffff168373ffffffffffffffffffffffffffffffffffffffff167f17307eab39ab6107e8899845ad3d59bd9653f200f220920489ca2b5937696c31836040516115dc9190612312565b60405180910390a3505050565b5f8373ffffffffffffffffffffffffffffffffffffffff163b111561178e578273ffffffffffffffffffffffffffffffffffffffff1663150b7a02868685856040518563ffffffff1660e01b81526004016116479493929190612f10565b6020604051808303815f875af192505050801561168257506040513d601f19601f8201168201806040525081019061167f9190612f6e565b60015b611703573d805f81146116b0576040519150601f19603f3d011682016040523d82523d5f602084013e6116b5565b606091505b505f8151036116fb57836040517f64a0ae920000000000000000000000000000000000000000000000000000000081526004016116f29190612472565b60405180910390fd5b805181602001fd5b63150b7a0260e01b7bffffffffffffffffffffffffffffffffffffffffffffffffffffffff1916817bffffffffffffffffffffffffffffffffffffffffffffffffffffffff19161461178c57836040517f64a0ae920000000000000000000000000000000000000000000000000000000081526004016117839190612472565b60405180910390fd5b505b5050505050565b5f60025f8381526020019081526020015f205f9054906101000a900473ffffffffffffffffffffffffffffffffffffffff169050919050565b6117e7828260405180602001604052805f815250611fce565b5050565b5f7f01ffc9a7000000000000000000000000000000000000000000000000000000007bffffffffffffffffffffffffffffffffffffffffffffffffffffffff1916827bffffffffffffffffffffffffffffffffffffffffffffffffffffffff1916149050919050565b808061188c57505f73ffffffffffffffffffffffffffffffffffffffff168273ffffffffffffffffffffffffffffffffffffffff1614155b156119be575f61189b8461107a565b90505f73ffffffffffffffffffffffffffffffffffffffff168373ffffffffffffffffffffffffffffffffffffffff161415801561190557508273ffffffffffffffffffffffffffffffffffffffff168173ffffffffffffffffffffffffffffffffffffffff1614155b801561191857506119168184610e87565b155b1561195a57826040517fa9fbf51f0000000000000000000000000000000000000000000000000000000081526004016119519190612472565b60405180910390fd5b81156119bc57838573ffffffffffffffffffffffffffffffffffffffff168273ffffffffffffffffffffffffffffffffffffffff167f8c5be1e5ebec7d5bd14f71427d1e84f3dd0314c0f7b2291e5b200ac8c7c3b92560405160405180910390a45b505b8360045f8581526020019081526020015f205f6101000a81548173ffffffffffffffffffffffffffffffffffffffff021916908373ffffffffffffffffffffffffffffffffffffffff16021790555050505050565b5f80611a1e84611795565b90505f73ffffffffffffffffffffffffffffffffffffffff168373ffffffffffffffffffffffffffffffffffffffff1614611a5f57611a5e818486611ff1565b5b5f73ffffffffffffffffffffffffffffffffffffffff168173ffffffffffffffffffffffffffffffffffffffff1614611aea57611a9e5f855f80611854565b600160035f8373ffffffffffffffffffffffffffffffffffffffff1673ffffffffffffffffffffffffffffffffffffffff1681526020019081526020015f205f82825403925050819055505b5f73ffffffffffffffffffffffffffffffffffffffff168573ffffffffffffffffffffffffffffffffffffffff1614611b6957600160035f8773ffffffffffffffffffffffffffffffffffffffff1673ffffffffffffffffffffffffffffffffffffffff1681526020019081526020015f205f82825401925050819055505b8460025f8681526020019081526020015f205f6101000a81548173ffffffffffffffffffffffffffffffffffffffff021916908373ffffffffffffffffffffffffffffffffffffffff160217905550838573ffffffffffffffffffffffffffffffffffffffff168273ffffffffffffffffffffffffffffffffffffffff167fddf252ad1be2c89b69c2b068fc378daa952ba7f163c4a11628f55a4df523b3ef60405160405180910390a4809150509392505050565b60088054905060095f8381526020019081526020015f2081905550600881908060018154018082558091505060019003905f5260205f20015f909190919091505550565b5f611c6c836108bc565b90505f60075f8481526020019081526020015f205490505f60065f8673ffffffffffffffffffffffffffffffffffffffff1673ffffffffffffffffffffffffffffffffffffffff1681526020019081526020015f209050828214611d0b575f815f8581526020019081526020015f2054905080825f8581526020019081526020015f20819055508260075f8381526020019081526020015f2081905550505b60075f8581526020019081526020015f205f9055805f8481526020019081526020015f205f90555050505050565b5f6001600880549050611d4c9190612f99565b90505f60095f8481526020019081526020015f205490505f60088381548110611d7857611d776129c0565b5b905f5260205f20015490508060088381548110611d9857611d976129c0565b5b905f5260205f2001819055508160095f8381526020019081526020015f208190555060095f8581526020019081526020015f205f90556008805480611de057611ddf612fcc565b5b600190038181905f5260205f20015f9055905550505050565b5f6001611e05846108bc565b611e0f9190612f99565b90508160065f8573ffffffffffffffffffffffffffffffffffffffff1673ffffffffffffffffffffffffffffffffffffffff1681526020019081526020015f205f8381526020019081526020015f20819055508060075f8481526020019081526020015f2081905550505050565b5f805f90507a184f03e93ff9f4daa797ed6e38ed64bf6a1f0100000000000000008310611ed9577a184f03e93ff9f4daa797ed6e38ed64bf6a1f0100000000000000008381611ecf57611ece612e91565b5b0492506040810190505b6d04ee2d6d415b85acef81000000008310611f16576d04ee2d6d415b85acef81000000008381611f0c57611f0b612e91565b5b0492506020810190505b662386f26fc100008310611f4557662386f26fc100008381611f3b57611f3a612e91565b5b0492506010810190505b6305f5e1008310611f6e576305f5e1008381611f6457611f63612e91565b5b0492506008810190505b6127108310611f93576127108381611f8957611f88612e91565b5b0492506004810190505b60648310611fb65760648381611fac57611fab612e91565b5b0492506002810190505b600a8310611fc5576001810190505b80915050919050565b611fd883836120b4565b611fec611fe3611139565b5f8585856115e9565b505050565b611ffc8383836121a7565b6120af575f73ffffffffffffffffffffffffffffffffffffffff168373ffffffffffffffffffffffffffffffffffffffff160361207057806040517f7e2732890000000000000000000000000000000000000000000000000000000081526004016120679190612502565b60405180910390fd5b81816040517f177e802f0000000000000000000000000000000000000000000000000000000081526004016120a6929190612999565b60405180910390fd5b505050565b5f73ffffffffffffffffffffffffffffffffffffffff168273ffffffffffffffffffffffffffffffffffffffff1603612124575f6040517f64a0ae9200000000000000000000000000000000000000000000000000000000815260040161211b9190612472565b60405180910390fd5b5f61213083835f611152565b90505f73ffffffffffffffffffffffffffffffffffffffff168173ffffffffffffffffffffffffffffffffffffffff16146121a2575f6040517f73c6ac6e0000000000000000000000000000000000000000000000000000000081526004016121999190612472565b60405180910390fd5b505050565b5f8073ffffffffffffffffffffffffffffffffffffffff168373ffffffffffffffffffffffffffffffffffffffff161415801561225e57508273ffffffffffffffffffffffffffffffffffffffff168473ffffffffffffffffffffffffffffffffffffffff16148061221f575061221e8484610e87565b5b8061225d57508273ffffffffffffffffffffffffffffffffffffffff1661224583611100565b73ffffffffffffffffffffffffffffffffffffffff16145b5b90509392505050565b5f604051905090565b5f80fd5b5f80fd5b5f7fffffffff0000000000000000000000000000000000000000000000000000000082169050919050565b6122ac81612278565b81146122b6575f80fd5b50565b5f813590506122c7816122a3565b92915050565b5f602082840312156122e2576122e1612270565b5b5f6122ef848285016122b9565b91505092915050565b5f8115159050919050565b61230c816122f8565b82525050565b5f6020820190506123255f830184612303565b92915050565b5f81519050919050565b5f82825260208201905092915050565b5f5b83811015612362578082015181840152602081019050612347565b5f8484015250505050565b5f601f19601f8301169050919050565b5f6123878261232b565b6123918185612335565b93506123a1818560208601612345565b6123aa8161236d565b840191505092915050565b5f6020820190508181035f8301526123cd818461237d565b905092915050565b5f819050919050565b6123e7816123d5565b81146123f1575f80fd5b50565b5f81359050612402816123de565b92915050565b5f6020828403121561241d5761241c612270565b5b5f61242a848285016123f4565b91505092915050565b5f73ffffffffffffffffffffffffffffffffffffffff82169050919050565b5f61245c82612433565b9050919050565b61246c81612452565b82525050565b5f6020820190506124855f830184612463565b92915050565b61249481612452565b811461249e575f80fd5b50565b5f813590506124af8161248b565b92915050565b5f80604083850312156124cb576124ca612270565b5b5f6124d8858286016124a1565b92505060206124e9858286016123f4565b9150509250929050565b6124fc816123d5565b82525050565b5f6020820190506125155f8301846124f3565b92915050565b5f805f6060848603121561253257612531612270565b5b5f61253f868287016124a1565b9350506020612550868287016124a1565b9250506040612561868287016123f4565b9150509250925092565b5f602082840312156125805761257f612270565b5b5f61258d848285016124a1565b91505092915050565b5f6040820190506125a95f8301856124f3565b6125b660208301846124f3565b9392505050565b6125c6816122f8565b81146125d0575f80fd5b50565b5f813590506125e1816125bd565b92915050565b5f80604083850312156125fd576125fc612270565b5b5f61260a858286016124a1565b925050602061261b858286016125d3565b9150509250929050565b5f80fd5b5f80fd5b7f4e487b71000000000000000000000000000000000000000000000000000000005f52604160045260245ffd5b6126638261236d565b810181811067ffffffffffffffff821117156126825761268161262d565b5b80604052505050565b5f612694612267565b90506126a0828261265a565b919050565b5f67ffffffffffffffff8211156126bf576126be61262d565b5b6126c88261236d565b9050602081019050919050565b828183375f83830152505050565b5f6126f56126f0846126a5565b61268b565b90508281526020810184848401111561271157612710612629565b5b61271c8482856126d5565b509392505050565b5f82601f83011261273857612737612625565b5b81356127488482602086016126e3565b91505092915050565b5f805f806080858703121561276957612768612270565b5b5f612776878288016124a1565b9450506020612787878288016124a1565b9350506040612798878288016123f4565b925050606085013567ffffffffffffffff8111156127b9576127b8612274565b5b6127c587828801612724565b91505092959194509250565b5f67ffffffffffffffff8211156127eb576127ea61262d565b5b6127f48261236d565b9050602081019050919050565b5f61281361280e846127d1565b61268b565b90508281526020810184848401111561282f5761282e612629565b5b61283a8482856126d5565b509392505050565b5f82601f83011261285657612855612625565b5b8135612866848260208601612801565b91505092915050565b5f806040838503121561288557612884612270565b5b5f612892858286016123f4565b925050602083013567ffffffffffffffff8111156128b3576128b2612274565b5b6128bf85828601612842565b9150509250929050565b5f80604083850312156128df576128de612270565b5b5f6128ec858286016124a1565b92505060206128fd858286016124a1565b9150509250929050565b7f4e487b71000000000000000000000000000000000000000000000000000000005f52602260045260245ffd5b5f600282049050600182168061294b57607f821691505b60208210810361295e5761295d612907565b5b50919050565b5f6060820190506129775f830186612463565b61298460208301856124f3565b6129916040830184612463565b949350505050565b5f6040820190506129ac5f830185612463565b6129b960208301846124f3565b9392505050565b7f4e487b71000000000000000000000000000000000000000000000000000000005f52603260045260245ffd5b5f81905092915050565b5f612a018261232b565b612a0b81856129ed565b9350612a1b818560208601612345565b80840191505092915050565b7f2e6a736f6e000000000000000000000000000000000000000000000000000000815250565b5f612a5882846129f7565b9150612a6382612a27565b60058201915081905092915050565b5f612a7d82856129f7565b9150612a8982846129f7565b91508190509392505050565b5f819050815f5260205f209050919050565b5f6020601f8301049050919050565b5f82821b905092915050565b5f60088302612af17fffffffffffffffffffffffffffffffffffffffffffffffffffffffffffffffff82612ab6565b612afb8683612ab6565b95508019841693508086168417925050509392505050565b5f819050919050565b5f612b36612b31612b2c846123d5565b612b13565b6123d5565b9050919050565b5f819050919050565b612b4f83612b1c565b612b63612b5b82612b3d565b848454612ac2565b825550505050565b5f90565b612b77612b6b565b612b82818484612b46565b505050565b5b81811015612ba557612b9a5f82612b6f565b600181019050612b88565b5050565b601f821115612bea57612bbb81612a95565b612bc484612aa7565b81016020851015612bd3578190505b612be7612bdf85612aa7565b830182612b87565b50505b505050565b5f82821c905092915050565b5f612c0a5f1984600802612bef565b1980831691505092915050565b5f612c228383612bfb565b9150826002028217905092915050565b612c3b8261232b565b67ffffffffffffffff811115612c5457612c5361262d565b5b612c5e8254612934565b612c69828285612ba9565b5f60209050601f831160018114612c9a575f8415612c88578287015190505b612c928582612c17565b865550612cf9565b601f198416612ca886612a95565b5f5b82811015612ccf57848901518255600182019150602085019450602081019050612caa565b86831015612cec5784890151612ce8601f891682612bfb565b8355505b6001600288020188555050505b505050505050565b7f546f6d616b4e46543a2055524920717565727920666f72206e6f6e65786973745f8201527f656e7420746f6b656e0000000000000000000000000000000000000000000000602082015250565b5f612d5b602983612335565b9150612d6682612d01565b604082019050919050565b5f6020820190508181035f830152612d8881612d4f565b9050919050565b7f546f6d616b4e46543a2062617365555249206e6f742073657420666f722069745f8201527f656d547970650000000000000000000000000000000000000000000000000000602082015250565b5f612de9602683612335565b9150612df482612d8f565b604082019050919050565b5f6020820190508181035f830152612e1681612ddd565b9050919050565b7f4e487b71000000000000000000000000000000000000000000000000000000005f52601160045260245ffd5b5f612e54826123d5565b91507fffffffffffffffffffffffffffffffffffffffffffffffffffffffffffffffff8203612e8657612e85612e1d565b5b600182019050919050565b7f4e487b71000000000000000000000000000000000000000000000000000000005f52601260045260245ffd5b5f81519050919050565b5f82825260208201905092915050565b5f612ee282612ebe565b612eec8185612ec8565b9350612efc818560208601612345565b612f058161236d565b840191505092915050565b5f608082019050612f235f830187612463565b612f306020830186612463565b612f3d60408301856124f3565b8181036060830152612f4f8184612ed8565b905095945050505050565b5f81519050612f68816122a3565b92915050565b5f60208284031215612f8357612f82612270565b5b5f612f9084828501612f5a565b91505092915050565b5f612fa3826123d5565b9150612fae836123d5565b9250828203905081811115612fc657612fc5612e1d565b5b92915050565b7f4e487b71000000000000000000000000000000000000000000000000000000005f52603160045260245ffdfe697066733a2f2f6261667962656962717a6435687a35676b6c716a65376279786962776b796c777975626d72326c7977656261667a63716c716f6c736268766d74712fa2646970667358221220b6d82317863ae855d340e570ba1f43cf7b6bc09e6a69f717d0180d779c9d624d64736f6c63430008140033",
  "immutableReferences": {},
  "source": "// SPDX-License-Identifier: MIT\npragma solidity ^0.8.20;\n\nimport \"@openzeppelin/contracts/token/ERC721/extensions/ERC721Enumerable.sol\";\nimport \"@openzeppelin/contracts/access/Ownable.sol\";\nimport \"@openzeppelin/contracts/utils/Strings.sol\";\n\ncontract TomakNFT is ERC721Enumerable, Ownable{\n    using Strings for uint256;\n    constructor(string memory _name, string memory _symbol)\n        ERC721(_name, _symbol)\n        Ownable(msg.sender){}\n\n    //tokenid ->  url\n    mapping(uint256 => string) private _customTokenURIs;\n\n    //  -> \n    mapping(uint256 => uint256) public itemTypeMintCount;\n\n    //  -> base url\n    mapping(uint256 => string) public baseURIs;\n\n    function minting(uint256 itemType, string memory customURI) public onlyOwner {\n        uint256 index = ++itemTypeMintCount[itemType];\n        uint256 tokenId = (itemType << 128) | index;\n\n        _safeMint(msg.sender, tokenId);\n\n        if (bytes(customURI).length > 0) {\n            _customTokenURIs[tokenId] = customURI;\n        }\n    }\n\n    //baseURI  (itemType)\n    function setBaseURI(uint256 itemType) external onlyOwner {\n        string memory baseURI = \"ipfs://bafybeibqzd5hz5gklqje7byxibwkylwyubmr2lywebafzcqlqolsbhvmtq/\";\n        string memory fileName = string.concat(itemType.toString(), \".json\");\n        string memory uri = string.concat(baseURI, fileName);\n        baseURIs[itemType] = uri;\n    }\n\n    function tokenURI(uint256 tokenId) public view override returns (string memory) {\n        require(_ownerOf(tokenId) != address(0), \"TomakNFT: URI query for nonexistent token\");\n\n        if (bytes(_customTokenURIs[tokenId]).length > 0) {\n            return _customTokenURIs[tokenId];\n        }\n\n        (uint256 itemType, ) = decodeTokenId(tokenId); // index \n        string memory uri = baseURIs[itemType];\n        require(bytes(uri).length > 0, \"TomakNFT: baseURI not set for itemType\");\n\n        return uri; //  .json   \n    }\n\n    function decodeTokenId(uint256 tokenId) public pure returns (uint256 itemType, uint256 index) {\n        itemType = tokenId >> 128;\n        index = tokenId & ((1 << 128) - 1);\n    }\n\n    function getMintedCountByItemType(uint256 itemType) external view returns (uint256) {\n        return itemTypeMintCount[itemType];\n    }\n}",
  "sourcePath": "/home/tjmaxx/workspace/monthTest/250521_monthTest8/truffle/contracts/tomak.sol",
  "compiler": {
    "name": "solc",
    "version": "0.8.20+commit.a1b79de6.Emscripten.clang"
  },
  "schemaVersion": "3.4.16",
  "updatedAt": "2025-05-21T08:57:40.019Z",
  "devdoc": {
    "errors": {
      "ERC721EnumerableForbiddenBatchMint()": [
        {
          "details": "Batch mint is not allowed."
        }
      ],
      "ERC721IncorrectOwner(address,uint256,address)": [
        {
          "details": "Indicates an error related to the ownership over a particular token. Used in transfers.",
          "params": {
            "owner": "Address of the current owner of a token.",
            "sender": "Address whose tokens are being transferred.",
            "tokenId": "Identifier number of a token."
          }
        }
      ],
      "ERC721InsufficientApproval(address,uint256)": [
        {
          "details": "Indicates a failure with the `operator`s approval. Used in transfers.",
          "params": {
            "operator": "Address that may be allowed to operate on tokens without being their owner.",
            "tokenId": "Identifier number of a token."
          }
        }
      ],
      "ERC721InvalidApprover(address)": [
        {
          "details": "Indicates a failure with the `approver` of a token to be approved. Used in approvals.",
          "params": {
            "approver": "Address initiating an approval operation."
          }
        }
      ],
      "ERC721InvalidOperator(address)": [
        {
          "details": "Indicates a failure with the `operator` to be approved. Used in approvals.",
          "params": {
            "operator": "Address that may be allowed to operate on tokens without being their owner."
          }
        }
      ],
      "ERC721InvalidOwner(address)": [
        {
          "details": "Indicates that an address can't be an owner. For example, `address(0)` is a forbidden owner in ERC-20. Used in balance queries.",
          "params": {
            "owner": "Address of the current owner of a token."
          }
        }
      ],
      "ERC721InvalidReceiver(address)": [
        {
          "details": "Indicates a failure with the token `receiver`. Used in transfers.",
          "params": {
            "receiver": "Address to which tokens are being transferred."
          }
        }
      ],
      "ERC721InvalidSender(address)": [
        {
          "details": "Indicates a failure with the token `sender`. Used in transfers.",
          "params": {
            "sender": "Address whose tokens are being transferred."
          }
        }
      ],
      "ERC721NonexistentToken(uint256)": [
        {
          "details": "Indicates a `tokenId` whose `owner` is the zero address.",
          "params": {
            "tokenId": "Identifier number of a token."
          }
        }
      ],
      "ERC721OutOfBoundsIndex(address,uint256)": [
        {
          "details": "An `owner`'s token query was out of bounds for `index`. NOTE: The owner being `address(0)` indicates a global out of bounds index."
        }
      ],
      "OwnableInvalidOwner(address)": [
        {
          "details": "The owner is not a valid owner account. (eg. `address(0)`)"
        }
      ],
      "OwnableUnauthorizedAccount(address)": [
        {
          "details": "The caller account is not authorized to perform an operation."
        }
      ]
    },
    "events": {
      "Approval(address,address,uint256)": {
        "details": "Emitted when `owner` enables `approved` to manage the `tokenId` token."
      },
      "ApprovalForAll(address,address,bool)": {
        "details": "Emitted when `owner` enables or disables (`approved`) `operator` to manage all of its assets."
      },
      "Transfer(address,address,uint256)": {
        "details": "Emitted when `tokenId` token is transferred from `from` to `to`."
      }
    },
    "kind": "dev",
    "methods": {
      "approve(address,uint256)": {
        "details": "See {IERC721-approve}."
      },
      "balanceOf(address)": {
        "details": "See {IERC721-balanceOf}."
      },
      "getApproved(uint256)": {
        "details": "See {IERC721-getApproved}."
      },
      "isApprovedForAll(address,address)": {
        "details": "See {IERC721-isApprovedForAll}."
      },
      "name()": {
        "details": "See {IERC721Metadata-name}."
      },
      "owner()": {
        "details": "Returns the address of the current owner."
      },
      "ownerOf(uint256)": {
        "details": "See {IERC721-ownerOf}."
      },
      "renounceOwnership()": {
        "details": "Leaves the contract without owner. It will not be possible to call `onlyOwner` functions. Can only be called by the current owner. NOTE: Renouncing ownership will leave the contract without an owner, thereby disabling any functionality that is only available to the owner."
      },
      "safeTransferFrom(address,address,uint256)": {
        "details": "See {IERC721-safeTransferFrom}."
      },
      "safeTransferFrom(address,address,uint256,bytes)": {
        "details": "See {IERC721-safeTransferFrom}."
      },
      "setApprovalForAll(address,bool)": {
        "details": "See {IERC721-setApprovalForAll}."
      },
      "supportsInterface(bytes4)": {
        "details": "See {IERC165-supportsInterface}."
      },
      "symbol()": {
        "details": "See {IERC721Metadata-symbol}."
      },
      "tokenByIndex(uint256)": {
        "details": "See {IERC721Enumerable-tokenByIndex}."
      },
      "tokenOfOwnerByIndex(address,uint256)": {
        "details": "See {IERC721Enumerable-tokenOfOwnerByIndex}."
      },
      "tokenURI(uint256)": {
        "details": "See {IERC721Metadata-tokenURI}."
      },
      "totalSupply()": {
        "details": "See {IERC721Enumerable-totalSupply}."
      },
      "transferFrom(address,address,uint256)": {
        "details": "See {IERC721-transferFrom}."
      },
      "transferOwnership(address)": {
        "details": "Transfers ownership of the contract to a new account (`newOwner`). Can only be called by the current owner."
      }
    },
    "version": 1
  },
  "userdoc": {
    "kind": "user",
    "methods": {},
    "version": 1
  }
}